{
  "contractName": "ERC721Metadata",
  "abi": [
    {
      "inputs": [
        {
          "internalType": "string",
          "name": "name",
          "type": "string"
        },
        {
          "internalType": "string",
          "name": "symbol",
          "type": "string"
        },
        {
          "internalType": "string",
          "name": "baseTokenURI",
          "type": "string"
        }
      ],
      "stateMutability": "nonpayable",
      "type": "constructor"
    },
    {
      "anonymous": false,
      "inputs": [
        {
          "indexed": true,
          "internalType": "address",
          "name": "owner",
          "type": "address"
        },
        {
          "indexed": true,
          "internalType": "address",
          "name": "approved",
          "type": "address"
        },
        {
          "indexed": true,
          "internalType": "uint256",
          "name": "tokenId",
          "type": "uint256"
        }
      ],
      "name": "Approval",
      "type": "event"
    },
    {
      "anonymous": false,
      "inputs": [
        {
          "indexed": true,
          "internalType": "address",
          "name": "owner",
          "type": "address"
        },
        {
          "indexed": true,
          "internalType": "address",
          "name": "operator",
          "type": "address"
        },
        {
          "indexed": false,
          "internalType": "bool",
          "name": "approved",
          "type": "bool"
        }
      ],
      "name": "ApprovalForAll",
      "type": "event"
    },
    {
      "anonymous": false,
      "inputs": [
        {
          "indexed": false,
          "internalType": "bool",
          "name": "flag",
          "type": "bool"
        }
      ],
      "name": "Flag",
      "type": "event"
    },
    {
      "anonymous": false,
      "inputs": [
        {
          "indexed": false,
          "internalType": "address",
          "name": "caller",
          "type": "address"
        }
      ],
      "name": "Paused",
      "type": "event"
    },
    {
      "anonymous": false,
      "inputs": [
        {
          "indexed": true,
          "internalType": "address",
          "name": "from",
          "type": "address"
        },
        {
          "indexed": true,
          "internalType": "address",
          "name": "to",
          "type": "address"
        },
        {
          "indexed": true,
          "internalType": "uint256",
          "name": "tokenId",
          "type": "uint256"
        }
      ],
      "name": "Transfer",
      "type": "event"
    },
    {
      "anonymous": false,
      "inputs": [
        {
          "indexed": false,
          "internalType": "address",
          "name": "caller",
          "type": "address"
        }
      ],
      "name": "Unpaused",
      "type": "event"
    },
    {
      "anonymous": false,
      "inputs": [
        {
          "indexed": false,
          "internalType": "address",
          "name": "newAddress",
          "type": "address"
        }
      ],
      "name": "onwerShipTransfer",
      "type": "event"
    },
    {
      "inputs": [
        {
          "internalType": "bytes32",
          "name": "_myid",
          "type": "bytes32"
        },
        {
          "internalType": "string",
          "name": "_result",
          "type": "string"
        }
      ],
      "name": "__callback",
      "outputs": [],
      "stateMutability": "nonpayable",
      "type": "function"
    },
    {
      "inputs": [
        {
          "internalType": "bytes32",
          "name": "_myid",
          "type": "bytes32"
        },
        {
          "internalType": "string",
          "name": "_result",
          "type": "string"
        },
        {
          "internalType": "bytes",
          "name": "_proof",
          "type": "bytes"
        }
      ],
      "name": "__callback",
      "outputs": [],
      "stateMutability": "nonpayable",
      "type": "function"
    },
    {
      "inputs": [
        {
          "internalType": "address",
          "name": "to",
          "type": "address"
        },
        {
          "internalType": "uint256",
          "name": "tokenId",
          "type": "uint256"
        }
      ],
      "name": "approve",
      "outputs": [],
      "stateMutability": "nonpayable",
      "type": "function"
    },
    {
      "inputs": [
        {
          "internalType": "address",
          "name": "owner",
          "type": "address"
        }
      ],
      "name": "balanceOf",
      "outputs": [
        {
          "internalType": "uint256",
          "name": "",
          "type": "uint256"
        }
      ],
      "stateMutability": "view",
      "type": "function"
    },
    {
      "inputs": [
        {
          "internalType": "uint256",
          "name": "tokenId",
          "type": "uint256"
        }
      ],
      "name": "getApproved",
      "outputs": [
        {
          "internalType": "address",
          "name": "",
          "type": "address"
        }
      ],
      "stateMutability": "view",
      "type": "function"
    },
    {
      "inputs": [],
      "name": "getOwner",
      "outputs": [
        {
          "internalType": "address",
          "name": "addr",
          "type": "address"
        }
      ],
      "stateMutability": "view",
      "type": "function"
    },
    {
      "inputs": [
        {
          "internalType": "address",
          "name": "owner",
          "type": "address"
        },
        {
          "internalType": "address",
          "name": "operator",
          "type": "address"
        }
      ],
      "name": "isApprovedForAll",
      "outputs": [
        {
          "internalType": "bool",
          "name": "",
          "type": "bool"
        }
      ],
      "stateMutability": "view",
      "type": "function"
    },
    {
      "inputs": [
        {
          "internalType": "uint256",
          "name": "tokenId",
          "type": "uint256"
        }
      ],
      "name": "ownerOf",
      "outputs": [
        {
          "internalType": "address",
          "name": "",
          "type": "address"
        }
      ],
      "stateMutability": "view",
      "type": "function"
    },
    {
      "inputs": [
        {
          "internalType": "address",
          "name": "from",
          "type": "address"
        },
        {
          "internalType": "address",
          "name": "to",
          "type": "address"
        },
        {
          "internalType": "uint256",
          "name": "tokenId",
          "type": "uint256"
        }
      ],
      "name": "safeTransferFrom",
      "outputs": [],
      "stateMutability": "nonpayable",
      "type": "function"
    },
    {
      "inputs": [
        {
          "internalType": "address",
          "name": "from",
          "type": "address"
        },
        {
          "internalType": "address",
          "name": "to",
          "type": "address"
        },
        {
          "internalType": "uint256",
          "name": "tokenId",
          "type": "uint256"
        },
        {
          "internalType": "bytes",
          "name": "_data",
          "type": "bytes"
        }
      ],
      "name": "safeTransferFrom",
      "outputs": [],
      "stateMutability": "nonpayable",
      "type": "function"
    },
    {
      "inputs": [
        {
          "internalType": "address",
          "name": "to",
          "type": "address"
        },
        {
          "internalType": "bool",
          "name": "approved",
          "type": "bool"
        }
      ],
      "name": "setApprovalForAll",
      "outputs": [],
      "stateMutability": "nonpayable",
      "type": "function"
    },
    {
      "inputs": [
        {
          "internalType": "bool",
          "name": "state",
          "type": "bool"
        }
      ],
      "name": "setPause",
      "outputs": [],
      "stateMutability": "nonpayable",
      "type": "function"
    },
    {
      "inputs": [
        {
          "internalType": "bytes4",
          "name": "interfaceId",
          "type": "bytes4"
        }
      ],
      "name": "supportsInterface",
      "outputs": [
        {
          "internalType": "bool",
          "name": "",
          "type": "bool"
        }
      ],
      "stateMutability": "view",
      "type": "function"
    },
    {
      "inputs": [
        {
          "internalType": "uint256",
          "name": "index",
          "type": "uint256"
        }
      ],
      "name": "tokenByIndex",
      "outputs": [
        {
          "internalType": "uint256",
          "name": "",
          "type": "uint256"
        }
      ],
      "stateMutability": "view",
      "type": "function"
    },
    {
      "inputs": [
        {
          "internalType": "address",
          "name": "owner",
          "type": "address"
        },
        {
          "internalType": "uint256",
          "name": "index",
          "type": "uint256"
        }
      ],
      "name": "tokenOfOwnerByIndex",
      "outputs": [
        {
          "internalType": "uint256",
          "name": "",
          "type": "uint256"
        }
      ],
      "stateMutability": "view",
      "type": "function"
    },
    {
      "inputs": [],
      "name": "totalSupply",
      "outputs": [
        {
          "internalType": "uint256",
          "name": "",
          "type": "uint256"
        }
      ],
      "stateMutability": "view",
      "type": "function"
    },
    {
      "inputs": [
        {
          "internalType": "address",
          "name": "from",
          "type": "address"
        },
        {
          "internalType": "address",
          "name": "to",
          "type": "address"
        },
        {
          "internalType": "uint256",
          "name": "tokenId",
          "type": "uint256"
        }
      ],
      "name": "transferFrom",
      "outputs": [],
      "stateMutability": "nonpayable",
      "type": "function"
    },
    {
      "inputs": [
        {
          "internalType": "address",
          "name": "newOwner",
          "type": "address"
        }
      ],
      "name": "transferOwnership",
      "outputs": [],
      "stateMutability": "nonpayable",
      "type": "function"
    },
    {
      "inputs": [],
      "name": "getName",
      "outputs": [
        {
          "internalType": "string",
          "name": "name",
          "type": "string"
        }
      ],
      "stateMutability": "view",
      "type": "function"
    },
    {
      "inputs": [],
      "name": "get_symbol",
      "outputs": [
        {
          "internalType": "string",
          "name": "symbol",
          "type": "string"
        }
      ],
      "stateMutability": "view",
      "type": "function"
    },
    {
      "inputs": [],
      "name": "get_baseTokenURI",
      "outputs": [
        {
          "internalType": "string",
          "name": "uri",
          "type": "string"
        }
      ],
      "stateMutability": "view",
      "type": "function"
    },
    {
      "inputs": [
        {
          "internalType": "uint256",
          "name": "tokenId",
          "type": "uint256"
        }
      ],
      "name": "tokenURI",
      "outputs": [
        {
          "internalType": "string",
          "name": "",
          "type": "string"
        }
      ],
      "stateMutability": "view",
      "type": "function"
    }
  ],
  "bytecode": "0x60806040523480156200001157600080fd5b5060405162003403380380620034038339818101604052810190620000379190620004a3565b336000806101000a81548173ffffffffffffffffffffffffffffffffffffffff021916908373ffffffffffffffffffffffffffffffffffffffff1602179055507fe8417b5d798d3ccbb528cfc2e9a0130bfba2ab210859375d6dcfd2019f6772fc33604051620000a89190620005a1565b60405180910390a160008060146101000a81548160ff021916908315150217905550620000e26301ffc9a760e01b6200017e60201b60201c565b620000fa6380ac58cd60e01b6200017e60201b60201c565b6200011263780e9d6360e01b6200017e60201b60201c565b6200012a635b5e139f60e01b6200017e60201b60201c565b82600f90805190602001906200014292919062000256565b5081601090805190602001906200015b92919062000256565b5080601190805190602001906200017492919062000256565b50505050620006a6565b63ffffffff60e01b817bffffffffffffffffffffffffffffffffffffffffffffffffffffffff19161415620001ea576040517f08c379a0000000000000000000000000000000000000000000000000000000008152600401620001e1906200061f565b60405180910390fd5b6001806000837bffffffffffffffffffffffffffffffffffffffffffffffffffffffff19167bffffffffffffffffffffffffffffffffffffffffffffffffffffffff1916815260200190815260200160002060006101000a81548160ff02191690831515021790555050565b828054620002649062000670565b90600052602060002090601f016020900481019282620002885760008555620002d4565b82601f10620002a357805160ff1916838001178555620002d4565b82800160010185558215620002d4579182015b82811115620002d3578251825591602001919060010190620002b6565b5b509050620002e39190620002e7565b5090565b5b8082111562000302576000816000905550600101620002e8565b5090565b6000604051905090565b600080fd5b600080fd5b600080fd5b600080fd5b6000601f19601f8301169050919050565b7f4e487b7100000000000000000000000000000000000000000000000000000000600052604160045260246000fd5b6200036f8262000324565b810181811067ffffffffffffffff8211171562000391576200039062000335565b5b80604052505050565b6000620003a662000306565b9050620003b4828262000364565b919050565b600067ffffffffffffffff821115620003d757620003d662000335565b5b620003e28262000324565b9050602081019050919050565b60005b838110156200040f578082015181840152602081019050620003f2565b838111156200041f576000848401525b50505050565b60006200043c6200043684620003b9565b6200039a565b9050828152602081018484840111156200045b576200045a6200031f565b5b62000468848285620003ef565b509392505050565b600082601f8301126200048857620004876200031a565b5b81516200049a84826020860162000425565b91505092915050565b600080600060608486031215620004bf57620004be62000310565b5b600084015167ffffffffffffffff811115620004e057620004df62000315565b5b620004ee8682870162000470565b935050602084015167ffffffffffffffff81111562000512576200051162000315565b5b620005208682870162000470565b925050604084015167ffffffffffffffff81111562000544576200054362000315565b5b620005528682870162000470565b9150509250925092565b600073ffffffffffffffffffffffffffffffffffffffff82169050919050565b600062000589826200055c565b9050919050565b6200059b816200057c565b82525050565b6000602082019050620005b8600083018462000590565b92915050565b600082825260208201905092915050565b7f496e746572666163652049442073747566660000000000000000000000000000600082015250565b600062000607601283620005be565b91506200061482620005cf565b602082019050919050565b600060208201905081810360008301526200063a81620005f8565b9050919050565b7f4e487b7100000000000000000000000000000000000000000000000000000000600052602260045260246000fd5b600060028204905060018216806200068957607f821691505b60208210811415620006a0576200069f62000641565b5b50919050565b612d4d80620006b66000396000f3fe608060405234801561001057600080fd5b50600436106101425760003560e01c80634f6ccce7116100b8578063a22cb4651161007c578063a22cb46514610389578063b88d4fde146103a5578063bedb86fb146103c1578063c87b56dd146103dd578063e985e9c51461040d578063f2fde38b1461043d57610142565b80634f6ccce7146102bd57806354663ee1146102ed5780636352211e1461030b57806370a082311461033b578063893d20e81461036b57610142565b806323b872dd1161010a57806323b872dd146101ff57806327dc297e1461021b5780632f745c5914610237578063301b5ab81461026757806338bbfa501461028557806342842e0e146102a157610142565b806301ffc9a714610147578063081812fc14610177578063095ea7b3146101a757806317d7de7c146101c357806318160ddd146101e1575b600080fd5b610161600480360381019061015c9190611cbe565b610459565b60405161016e9190611d06565b60405180910390f35b610191600480360381019061018c9190611d57565b6104c1565b60405161019e9190611dc5565b60405180910390f35b6101c160048036038101906101bc9190611e0c565b6105a0565b005b6101cb610822565b6040516101d89190611ee5565b60405180910390f35b6101e96108b4565b6040516101f69190611f16565b60405180910390f35b61021960048036038101906102149190611f31565b6108c1565b005b610235600480360381019061023091906120ef565b6108e4565b005b610251600480360381019061024c9190611e0c565b610940565b60405161025e9190611f16565b60405180910390f35b61026f6109f0565b60405161027c9190611ee5565b60405180910390f35b61029f600480360381019061029a91906121ec565b610a82565b005b6102bb60048036038101906102b69190611f31565b610aa5565b005b6102d760048036038101906102d29190611d57565b610ac5565b6040516102e49190611f16565b60405180910390f35b6102f5610b36565b6040516103029190611ee5565b60405180910390f35b61032560048036038101906103209190611d57565b610bc8565b6040516103329190611dc5565b60405180910390f35b61035560048036038101906103509190612277565b610ca7565b6040516103629190611f16565b60405180910390f35b610373610d80565b6040516103809190611dc5565b60405180910390f35b6103a3600480360381019061039e91906122d0565b610da9565b005b6103bf60048036038101906103ba9190612310565b610f15565b005b6103db60048036038101906103d69190612393565b610f71565b005b6103f760048036038101906103f29190611d57565b6110b8565b6040516104049190611ee5565b60405180910390f35b610427600480360381019061042291906123c0565b6111a5565b6040516104349190611d06565b60405180910390f35b61045760048036038101906104529190612277565b611239565b005b600060016000837bffffffffffffffffffffffffffffffffffffffffffffffffffffffff19167bffffffffffffffffffffffffffffffffffffffffffffffffffffffff1916815260200190815260200160002060009054906101000a900460ff169050919050565b60008073ffffffffffffffffffffffffffffffffffffffff166002600084815260200190815260200160002060009054906101000a900473ffffffffffffffffffffffffffffffffffffffff1673ffffffffffffffffffffffffffffffffffffffff161415610565576040517f08c379a000000000000000000000000000000000000000000000000000000000815260040161055c90612472565b60405180910390fd5b6003600083815260200190815260200160002060009054906101000a900473ffffffffffffffffffffffffffffffffffffffff169050919050565b600073ffffffffffffffffffffffffffffffffffffffff166002600083815260200190815260200160002060009054906101000a900473ffffffffffffffffffffffffffffffffffffffff1673ffffffffffffffffffffffffffffffffffffffff161415610643576040517f08c379a000000000000000000000000000000000000000000000000000000000815260040161063a90612472565b60405180910390fd5b6002600082815260200190815260200160002060009054906101000a900473ffffffffffffffffffffffffffffffffffffffff1673ffffffffffffffffffffffffffffffffffffffff168273ffffffffffffffffffffffffffffffffffffffff1614156106e5576040517f08c379a00000000000000000000000000000000000000000000000000000000081526004016106dc90612504565b60405180910390fd5b6106ee336113b1565b8061073257506107316002600083815260200190815260200160002060009054906101000a900473ffffffffffffffffffffffffffffffffffffffff16836111a5565b5b610771576040517f08c379a000000000000000000000000000000000000000000000000000000000815260040161076890612570565b60405180910390fd5b816003600083815260200190815260200160002060006101000a81548173ffffffffffffffffffffffffffffffffffffffff021916908373ffffffffffffffffffffffffffffffffffffffff160217905550808273ffffffffffffffffffffffffffffffffffffffff163373ffffffffffffffffffffffffffffffffffffffff167f8c5be1e5ebec7d5bd14f71427d1e84f3dd0314c0f7b2291e5b200ac8c7c3b92560405160405180910390a45050565b6060600f8054610831906125bf565b80601f016020809104026020016040519081016040528092919081815260200182805461085d906125bf565b80156108aa5780601f1061087f576101008083540402835291602001916108aa565b820191906000526020600020905b81548152906001019060200180831161088d57829003601f168201915b5050505050905090565b6000600880549050905090565b6108cb3382611409565b6108d457600080fd5b6108df83838361149e565b505050565b61093c8282600067ffffffffffffffff81111561090457610903611fc4565b5b6040519080825280601f01601f1916602001820160405280156109365781602001600182028036833780820191505090505b50610a82565b5050565b600061094b83610ca7565b821061098c576040517f08c379a00000000000000000000000000000000000000000000000000000000081526004016109839061263d565b60405180910390fd5b600660008473ffffffffffffffffffffffffffffffffffffffff1673ffffffffffffffffffffffffffffffffffffffff16815260200190815260200160002082815481106109dd576109dc61265d565b5b9060005260206000200154905092915050565b6060601080546109ff906125bf565b80601f0160208091040260200160405190810160405280929190818152602001828054610a2b906125bf565b8015610a785780601f10610a4d57610100808354040283529160200191610a78565b820191906000526020600020905b815481529060010190602001808311610a5b57829003601f168201915b5050505050905090565b6000801b600d60008060001b815260200190815260200160002081905550505050565b610ac083838360405180602001604052806000815250610f15565b505050565b6000610acf6108b4565b8210610b10576040517f08c379a0000000000000000000000000000000000000000000000000000000008152600401610b07906126d8565b60405180910390fd5b60088281548110610b2457610b2361265d565b5b90600052602060002001549050919050565b606060118054610b45906125bf565b80601f0160208091040260200160405190810160405280929190818152602001828054610b71906125bf565b8015610bbe5780601f10610b9357610100808354040283529160200191610bbe565b820191906000526020600020905b815481529060010190602001808311610ba157829003601f168201915b5050505050905090565b60008073ffffffffffffffffffffffffffffffffffffffff166002600084815260200190815260200160002060009054906101000a900473ffffffffffffffffffffffffffffffffffffffff1673ffffffffffffffffffffffffffffffffffffffff161415610c6c576040517f08c379a0000000000000000000000000000000000000000000000000000000008152600401610c6390612472565b60405180910390fd5b6002600083815260200190815260200160002060009054906101000a900473ffffffffffffffffffffffffffffffffffffffff169050919050565b600080610cf1600460008573ffffffffffffffffffffffffffffffffffffffff1673ffffffffffffffffffffffffffffffffffffffff1681526020019081526020016000206114c2565b1415610d32576040517f08c379a0000000000000000000000000000000000000000000000000000000008152600401610d2990612744565b60405180910390fd5b610d79600460008473ffffffffffffffffffffffffffffffffffffffff1673ffffffffffffffffffffffffffffffffffffffff1681526020019081526020016000206114c2565b9050919050565b60008060009054906101000a900473ffffffffffffffffffffffffffffffffffffffff16905090565b3373ffffffffffffffffffffffffffffffffffffffff168273ffffffffffffffffffffffffffffffffffffffff161415610e18576040517f08c379a0000000000000000000000000000000000000000000000000000000008152600401610e0f906127b0565b60405180910390fd5b80600560003373ffffffffffffffffffffffffffffffffffffffff1673ffffffffffffffffffffffffffffffffffffffff16815260200190815260200160002060008473ffffffffffffffffffffffffffffffffffffffff1673ffffffffffffffffffffffffffffffffffffffff16815260200190815260200160002060006101000a81548160ff0219169083151502179055508173ffffffffffffffffffffffffffffffffffffffff163373ffffffffffffffffffffffffffffffffffffffff167f17307eab39ab6107e8899845ad3d59bd9653f200f220920489ca2b5937696c3183604051610f099190611d06565b60405180910390a35050565b610f208484846108c1565b610f2c848484846114d0565b610f6b576040517f08c379a0000000000000000000000000000000000000000000000000000000008152600401610f629061281c565b60405180910390fd5b50505050565b60008054906101000a900473ffffffffffffffffffffffffffffffffffffffff1673ffffffffffffffffffffffffffffffffffffffff163373ffffffffffffffffffffffffffffffffffffffff1614610fff576040517f08c379a0000000000000000000000000000000000000000000000000000000008152600401610ff6906128ae565b60405180910390fd5b801515600060149054906101000a900460ff161515146110b55780600060146101000a81548160ff02191690831515021790555060011515811515141561107c577f62e78cea01bee320cd4e420270b5ea74000d11b0c9f74754ebdbfc544b05a2583360405161106f9190611dc5565b60405180910390a16110b4565b7f5db9ee0a495bf2e6ff9c91a7834c1ba4fdd244a5e8aa4e537bd38aeae4b073aa336040516110ab9190611dc5565b60405180910390a15b5b50565b60606110c3826115d8565b611102576040517f08c379a00000000000000000000000000000000000000000000000000000000081526004016110f99061291a565b60405180910390fd5b601260008381526020019081526020016000208054611120906125bf565b80601f016020809104026020016040519081016040528092919081815260200182805461114c906125bf565b80156111995780601f1061116e57610100808354040283529160200191611199565b820191906000526020600020905b81548152906001019060200180831161117c57829003601f168201915b50505050509050919050565b6000600560008473ffffffffffffffffffffffffffffffffffffffff1673ffffffffffffffffffffffffffffffffffffffff16815260200190815260200160002060008373ffffffffffffffffffffffffffffffffffffffff1673ffffffffffffffffffffffffffffffffffffffff16815260200190815260200160002060009054906101000a900460ff16905092915050565b60008054906101000a900473ffffffffffffffffffffffffffffffffffffffff1673ffffffffffffffffffffffffffffffffffffffff163373ffffffffffffffffffffffffffffffffffffffff16146112c7576040517f08c379a00000000000000000000000000000000000000000000000000000000081526004016112be906128ae565b60405180910390fd5b600073ffffffffffffffffffffffffffffffffffffffff168173ffffffffffffffffffffffffffffffffffffffff161415611337576040517f08c379a000000000000000000000000000000000000000000000000000000000815260040161132e90612986565b60405180910390fd5b806000806101000a81548173ffffffffffffffffffffffffffffffffffffffff021916908373ffffffffffffffffffffffffffffffffffffffff1602179055507fe8417b5d798d3ccbb528cfc2e9a0130bfba2ab210859375d6dcfd2019f6772fc816040516113a69190611dc5565b60405180910390a150565b60008173ffffffffffffffffffffffffffffffffffffffff1660008054906101000a900473ffffffffffffffffffffffffffffffffffffffff1673ffffffffffffffffffffffffffffffffffffffff16149050919050565b60008061141583610bc8565b90508073ffffffffffffffffffffffffffffffffffffffff168473ffffffffffffffffffffffffffffffffffffffff16148061148457508373ffffffffffffffffffffffffffffffffffffffff1661146c846104c1565b73ffffffffffffffffffffffffffffffffffffffff16145b80611495575061149481856111a5565b5b91505092915050565b6114a983838361164a565b6114b38382611894565b6114bd8282611a4b565b505050565b600081600001549050919050565b60006114f18473ffffffffffffffffffffffffffffffffffffffff16611b0f565b6114fe57600190506115d0565b60008473ffffffffffffffffffffffffffffffffffffffff1663150b7a02338887876040518563ffffffff1660e01b815260040161153f94939291906129fb565b6020604051808303816000875af115801561155e573d6000803e3d6000fd5b505050506040513d601f19601f820116820180604052508101906115829190612a5c565b905063150b7a0260e01b7bffffffffffffffffffffffffffffffffffffffffffffffffffffffff1916817bffffffffffffffffffffffffffffffffffffffffffffffffffffffff1916149150505b949350505050565b6000806002600084815260200190815260200160002060009054906101000a900473ffffffffffffffffffffffffffffffffffffffff169050600073ffffffffffffffffffffffffffffffffffffffff168173ffffffffffffffffffffffffffffffffffffffff161415915050919050565b600073ffffffffffffffffffffffffffffffffffffffff168273ffffffffffffffffffffffffffffffffffffffff1614156116ba576040517f08c379a00000000000000000000000000000000000000000000000000000000081526004016116b190612afb565b60405180910390fd5b6116c3816115d8565b611702576040517f08c379a00000000000000000000000000000000000000000000000000000000081526004016116f990612b67565b60405180910390fd5b61170c8382611409565b61174b576040517f08c379a000000000000000000000000000000000000000000000000000000000815260040161174290612bf9565b60405180910390fd5b61175481611b22565b61179b600460008573ffffffffffffffffffffffffffffffffffffffff1673ffffffffffffffffffffffffffffffffffffffff168152602001908152602001600020611be0565b6117e2600460008473ffffffffffffffffffffffffffffffffffffffff1673ffffffffffffffffffffffffffffffffffffffff168152602001908152602001600020611c3c565b816002600083815260200190815260200160002060006101000a81548173ffffffffffffffffffffffffffffffffffffffff021916908373ffffffffffffffffffffffffffffffffffffffff160217905550808273ffffffffffffffffffffffffffffffffffffffff168473ffffffffffffffffffffffffffffffffffffffff167fddf252ad1be2c89b69c2b068fc378daa952ba7f163c4a11628f55a4df523b3ef60405160405180910390a4505050565b60006001600660008573ffffffffffffffffffffffffffffffffffffffff1673ffffffffffffffffffffffffffffffffffffffff168152602001908152602001600020805490506118e59190612c48565b90506000600760008481526020019081526020016000205490508181146119e0576000600660008673ffffffffffffffffffffffffffffffffffffffff1673ffffffffffffffffffffffffffffffffffffffff16815260200190815260200160002083815481106119595761195861265d565b5b9060005260206000200154905080600660008773ffffffffffffffffffffffffffffffffffffffff1673ffffffffffffffffffffffffffffffffffffffff16815260200190815260200160002083815481106119b8576119b761265d565b5b9060005260206000200181905550816007600083815260200190815260200160002081905550505b600660008573ffffffffffffffffffffffffffffffffffffffff1673ffffffffffffffffffffffffffffffffffffffff168152602001908152602001600020805480611a2f57611a2e612c7c565b5b6001900381819060005260206000200160009055905550505050565b600660008373ffffffffffffffffffffffffffffffffffffffff1673ffffffffffffffffffffffffffffffffffffffff168152602001908152602001600020805490506007600083815260200190815260200160002081905550600660008373ffffffffffffffffffffffffffffffffffffffff1673ffffffffffffffffffffffffffffffffffffffff1681526020019081526020016000208190806001815401808255809150506001900390600052602060002001600090919091909150555050565b600080823b905060008111915050919050565b600073ffffffffffffffffffffffffffffffffffffffff166003600083815260200190815260200160002060009054906101000a900473ffffffffffffffffffffffffffffffffffffffff1673ffffffffffffffffffffffffffffffffffffffff1614611bdd5760006003600083815260200190815260200160002060006101000a81548173ffffffffffffffffffffffffffffffffffffffff021916908373ffffffffffffffffffffffffffffffffffffffff1602179055505b50565b60008160000154905060008111611c2c576040517f08c379a0000000000000000000000000000000000000000000000000000000008152600401611c2390612cf7565b60405180910390fd5b6001810382600001819055505050565b6001816000016000828254019250508190555050565b6000604051905090565b600080fd5b600080fd5b60007fffffffff0000000000000000000000000000000000000000000000000000000082169050919050565b611c9b81611c66565b8114611ca657600080fd5b50565b600081359050611cb881611c92565b92915050565b600060208284031215611cd457611cd3611c5c565b5b6000611ce284828501611ca9565b91505092915050565b60008115159050919050565b611d0081611ceb565b82525050565b6000602082019050611d1b6000830184611cf7565b92915050565b6000819050919050565b611d3481611d21565b8114611d3f57600080fd5b50565b600081359050611d5181611d2b565b92915050565b600060208284031215611d6d57611d6c611c5c565b5b6000611d7b84828501611d42565b91505092915050565b600073ffffffffffffffffffffffffffffffffffffffff82169050919050565b6000611daf82611d84565b9050919050565b611dbf81611da4565b82525050565b6000602082019050611dda6000830184611db6565b92915050565b611de981611da4565b8114611df457600080fd5b50565b600081359050611e0681611de0565b92915050565b60008060408385031215611e2357611e22611c5c565b5b6000611e3185828601611df7565b9250506020611e4285828601611d42565b9150509250929050565b600081519050919050565b600082825260208201905092915050565b60005b83811015611e86578082015181840152602081019050611e6b565b83811115611e95576000848401525b50505050565b6000601f19601f8301169050919050565b6000611eb782611e4c565b611ec18185611e57565b9350611ed1818560208601611e68565b611eda81611e9b565b840191505092915050565b60006020820190508181036000830152611eff8184611eac565b905092915050565b611f1081611d21565b82525050565b6000602082019050611f2b6000830184611f07565b92915050565b600080600060608486031215611f4a57611f49611c5c565b5b6000611f5886828701611df7565b9350506020611f6986828701611df7565b9250506040611f7a86828701611d42565b9150509250925092565b6000819050919050565b611f9781611f84565b8114611fa257600080fd5b50565b600081359050611fb481611f8e565b92915050565b600080fd5b600080fd5b7f4e487b7100000000000000000000000000000000000000000000000000000000600052604160045260246000fd5b611ffc82611e9b565b810181811067ffffffffffffffff8211171561201b5761201a611fc4565b5b80604052505050565b600061202e611c52565b905061203a8282611ff3565b919050565b600067ffffffffffffffff82111561205a57612059611fc4565b5b61206382611e9b565b9050602081019050919050565b82818337600083830152505050565b600061209261208d8461203f565b612024565b9050828152602081018484840111156120ae576120ad611fbf565b5b6120b9848285612070565b509392505050565b600082601f8301126120d6576120d5611fba565b5b81356120e684826020860161207f565b91505092915050565b6000806040838503121561210657612105611c5c565b5b600061211485828601611fa5565b925050602083013567ffffffffffffffff81111561213557612134611c61565b5b612141858286016120c1565b9150509250929050565b600067ffffffffffffffff82111561216657612165611fc4565b5b61216f82611e9b565b9050602081019050919050565b600061218f61218a8461214b565b612024565b9050828152602081018484840111156121ab576121aa611fbf565b5b6121b6848285612070565b509392505050565b600082601f8301126121d3576121d2611fba565b5b81356121e384826020860161217c565b91505092915050565b60008060006060848603121561220557612204611c5c565b5b600061221386828701611fa5565b935050602084013567ffffffffffffffff81111561223457612233611c61565b5b612240868287016120c1565b925050604084013567ffffffffffffffff81111561226157612260611c61565b5b61226d868287016121be565b9150509250925092565b60006020828403121561228d5761228c611c5c565b5b600061229b84828501611df7565b91505092915050565b6122ad81611ceb565b81146122b857600080fd5b50565b6000813590506122ca816122a4565b92915050565b600080604083850312156122e7576122e6611c5c565b5b60006122f585828601611df7565b9250506020612306858286016122bb565b9150509250929050565b6000806000806080858703121561232a57612329611c5c565b5b600061233887828801611df7565b945050602061234987828801611df7565b935050604061235a87828801611d42565b925050606085013567ffffffffffffffff81111561237b5761237a611c61565b5b612387878288016121be565b91505092959194509250565b6000602082840312156123a9576123a8611c5c565b5b60006123b7848285016122bb565b91505092915050565b600080604083850312156123d7576123d6611c5c565b5b60006123e585828601611df7565b92505060206123f685828601611df7565b9150509250929050565b7f5468697320746f6b656e20494420686173206e6f74206265656e20726567697360008201527f7465726564000000000000000000000000000000000000000000000000000000602082015250565b600061245c602583611e57565b915061246782612400565b604082019050919050565b6000602082019050818103600083015261248b8161244f565b9050919050565b7f4164647265737320746f207472616e736665722063616e6e6f7420626520746860008201527f65206f776e657200000000000000000000000000000000000000000000000000602082015250565b60006124ee602783611e57565b91506124f982612492565b604082019050919050565b6000602082019050818103600083015261251d816124e1565b9050919050565b7f4f7065726174696f6e206e6f7420617070726f76656400000000000000000000600082015250565b600061255a601683611e57565b915061256582612524565b602082019050919050565b600060208201905081810360008301526125898161254d565b9050919050565b7f4e487b7100000000000000000000000000000000000000000000000000000000600052602260045260246000fd5b600060028204905060018216806125d757607f821691505b602082108114156125eb576125ea612590565b5b50919050565b7f42616c616e63654f662050726f626c656d730000000000000000000000000000600082015250565b6000612627601283611e57565b9150612632826125f1565b602082019050919050565b600060208201905081810360008301526126568161261a565b9050919050565b7f4e487b7100000000000000000000000000000000000000000000000000000000600052603260045260246000fd5b7f546f74616c20537570706c792070726f626c656d730000000000000000000000600082015250565b60006126c2601583611e57565b91506126cd8261268c565b602082019050919050565b600060208201905081810360008301526126f1816126b5565b9050919050565b7f54686973206164647265737320646f65736e74206861766520746f6b656e7300600082015250565b600061272e601f83611e57565b9150612739826126f8565b602082019050919050565b6000602082019050818103600083015261275d81612721565b9050919050565b7f43616c6c657220616e6420546f2063616e6e6f74206265207468652073616d65600082015250565b600061279a602083611e57565b91506127a582612764565b602082019050919050565b600060208201905081810360008301526127c98161278d565b9050919050565b7f4552433732312053747566660000000000000000000000000000000000000000600082015250565b6000612806600c83611e57565b9150612811826127d0565b602082019050919050565b60006020820190508181036000830152612835816127f9565b9050919050565b7f546869732066756e6374696f6e206a7573742063616e2062652063616c6c656e60008201527f6420627920746865206f776e6572206f662074686520636f6e74726163740000602082015250565b6000612898603e83611e57565b91506128a38261283c565b604082019050919050565b600060208201905081810360008301526128c78161288b565b9050919050565b7f746f6b656e494420646f65736e74206578697374730000000000000000000000600082015250565b6000612904601583611e57565b915061290f826128ce565b602082019050919050565b60006020820190508181036000830152612933816128f7565b9050919050565b7f4f776e65722063616e6e6f74206265205a65726f000000000000000000000000600082015250565b6000612970601483611e57565b915061297b8261293a565b602082019050919050565b6000602082019050818103600083015261299f81612963565b9050919050565b600081519050919050565b600082825260208201905092915050565b60006129cd826129a6565b6129d781856129b1565b93506129e7818560208601611e68565b6129f081611e9b565b840191505092915050565b6000608082019050612a106000830187611db6565b612a1d6020830186611db6565b612a2a6040830185611f07565b8181036060830152612a3c81846129c2565b905095945050505050565b600081519050612a5681611c92565b92915050565b600060208284031215612a7257612a71611c5c565b5b6000612a8084828501612a47565b91505092915050565b7f43616e6e6f74206d696e74206120746f6b656e20746f2061646472657373203060008201527f7830300000000000000000000000000000000000000000000000000000000000602082015250565b6000612ae5602383611e57565b9150612af082612a89565b604082019050919050565b60006020820190508181036000830152612b1481612ad8565b9050919050565b7f546f6b656e496420646f65736e74206578697374730000000000000000000000600082015250565b6000612b51601583611e57565b9150612b5c82612b1b565b602082019050919050565b60006020820190508181036000830152612b8081612b44565b9050919050565b7f66726f6d2041646472657373206973206e6f7420746865206f776e6572206f6660008201527f2074686520746f6b656e00000000000000000000000000000000000000000000602082015250565b6000612be3602a83611e57565b9150612bee82612b87565b604082019050919050565b60006020820190508181036000830152612c1281612bd6565b9050919050565b7f4e487b7100000000000000000000000000000000000000000000000000000000600052601160045260246000fd5b6000612c5382611d21565b9150612c5e83611d21565b925082821015612c7157612c70612c19565b5b828203905092915050565b7f4e487b7100000000000000000000000000000000000000000000000000000000600052603160045260246000fd5b7f436f756e7465723a2064656372656d656e74206f766572666c6f770000000000600082015250565b6000612ce1601b83611e57565b9150612cec82612cab565b602082019050919050565b60006020820190508181036000830152612d1081612cd4565b905091905056fea264697066735822122014528c5220c3df3095904cd4bb93e655fd6936b0ce5ed3d97e604a7ec9bf31a864736f6c634300080b0033",
  "immutableReferences": {},
  "source": "pragma solidity >=0.8.0;\n\nimport 'openzeppelin-solidity/contracts/utils/Address.sol';\nimport 'openzeppelin-solidity/contracts/utils/Counters.sol';\nimport 'openzeppelin-solidity/contracts/utils/math/SafeMath.sol';\nimport 'openzeppelin-solidity/contracts/token/ERC721/IERC721Receiver.sol';\nimport \"./Oraclize.sol\";\n\ncontract Ownable {\n    //  TODO's\n    //  1) create a private '_owner' variable of type address with a public getter function\n    //  2) create an internal constructor that sets the _owner var to the creater of the contract \n    //  3) create an 'onlyOwner' modifier that throws if called by any account other than the owner.\n    //  4) fill out the transferOwnership function\n    //  5) create an event that emits anytime ownerShip is transfered (including in the constructor)\n\n    address private _owner;\n\n    event onwerShipTransfer(address newAddress);\n\n    constructor (){\n        _owner = msg.sender;\n        emit onwerShipTransfer(msg.sender);\n    }\n\n    modifier onlyOwner() {\n        require(msg.sender == _owner, \"This function just can be callend by the owner of the contract\");\n        _;\n    }\n\n    function isOwner(address addr) internal view returns(bool){\n        return _owner == addr;\n    }\n\n    function getOwner() external view returns(address addr) {\n        return _owner;\n    }\n\n    \n\n    function transferOwnership(address newOwner) public onlyOwner {\n        // TODO add functionality to transfer control of the contract to a newOwner.\n        // make sure the new owner is a real address\n        require(newOwner!= address(0), \"Owner cannot be Zero\");\n        _owner = newOwner;\n        emit onwerShipTransfer(newOwner);\n    }\n}\n\n//  TODO's: Create a Pausable contract that inherits from the Ownable contract\n//  1) create a private '_paused' variable of type bool\n//  2) create a public setter using the inherited onlyOwner modifier \n//  3) create an internal constructor that sets the _paused variable to false\n//  4) create 'whenNotPaused' & 'paused' modifier that throws in the appropriate situation\n//  5) create a Paused & Unpaused event that emits the address that triggered the event\n\ncontract Pausable is Ownable{\n    bool private _paused;\n\n    event Paused(address caller);\n    event Unpaused(address caller);\n\n    function setPause(bool state) public onlyOwner{\n        if (_paused != state){\n            _paused = state;\n            if (state == true){\n                emit Paused(msg.sender);\n            }else{\n                emit Unpaused(msg.sender);\n            }           \n        }\n    }\n\n    constructor (){\n        _paused = false;\n    }\n\n    modifier whenNotPaused(){\n        require(_paused == false, \"Contract should NOT be paused to execute this function\");\n        _;\n    }\n\n    modifier whenPaused(){\n        require(_paused == true, \"Contract should be paused to execute this function\");\n        _;\n    }\n\n}\n\ncontract ERC165 {\n    bytes4 private constant _INTERFACE_ID_ERC165 = 0x01ffc9a7;\n    /*\n     * 0x01ffc9a7 ===\n     *     bytes4(keccak256('supportsInterface(bytes4)'))\n     */\n\n    /**\n     * @dev a mapping of interface id to whether or not it's supported\n     */\n    mapping(bytes4 => bool) private _supportedInterfaces;\n\n    /**\n     * @dev A contract implementing SupportsInterfaceWithLookup\n     * implement ERC165 itself\n     */\n    constructor () {\n        _registerInterface(_INTERFACE_ID_ERC165);\n    }\n\n    /**\n     * @dev implement supportsInterface(bytes4) using a lookup table\n     */\n    function supportsInterface(bytes4 interfaceId) external view returns (bool) {\n        return _supportedInterfaces[interfaceId];\n    }\n\n    /**\n     * @dev internal method for registering an interface\n     */\n    function _registerInterface(bytes4 interfaceId) internal {\n        require(interfaceId != 0xffffffff, \"Interface ID stuff\");\n        _supportedInterfaces[interfaceId] = true;\n    }\n}\n\ncontract ERC721 is Pausable, ERC165 {\n\n    event Transfer(address indexed from, address indexed to, uint256 indexed tokenId);\n\n    event Approval(address indexed owner, address indexed approved, uint256 indexed tokenId);\n\n    event ApprovalForAll(address indexed owner, address indexed operator, bool approved);\n\n    event Flag(bool flag);\n    \n    using SafeMath for uint256;\n    using Address for address;\n    using Counters for Counters.Counter;\n\n    // Equals to `bytes4(keccak256(\"onERC721Received(address,address,uint256,bytes)\"))`\n    // which can be also obtained as `IERC721Receiver(0).onERC721Received.selector`\n    bytes4 private constant _ERC721_RECEIVED = 0x150b7a02;\n\n    // Mapping from token ID to owner\n    mapping (uint256 => address) private _tokenOwner;\n\n    // Mapping from token ID to approved address\n    mapping (uint256 => address) private _tokenApprovals;\n\n    // Mapping from owner to number of owned token\n    // IMPORTANT: this mapping uses Counters lib which is used to protect overflow when incrementing/decrementing a uint\n    // use the following functions when interacting with Counters: increment(), decrement(), and current() to get the value\n    // see: https://github.com/OpenZeppelin/openzeppelin-solidity/blob/master/contracts/drafts/Counters.sol\n    mapping (address => Counters.Counter) private _ownedTokensCount;\n\n    // Mapping from owner to operator approvals\n    mapping (address => mapping (address => bool)) private _operatorApprovals;\n\n    bytes4 private constant _INTERFACE_ID_ERC721 = 0x80ac58cd;\n\n    constructor () {\n        // register the supported interfaces to conform to ERC721 via ERC165\n        _registerInterface(_INTERFACE_ID_ERC721);\n    }\n\n    function balanceOf(address owner) public view returns (uint256) {\n        // TODO return the token balance of given address\n        // TIP: remember the functions to use for Counters. you can refresh yourself with the link above\n        require(_ownedTokensCount[owner].current() != 0, \"This address doesnt have tokens\");\n        return _ownedTokensCount[owner].current();\n    }\n\n    function ownerOf(uint256 tokenId) public view returns (address) {\n        // TODO return the owner of the given tokenId\n        require(_tokenOwner[tokenId] != address(0), \"This token ID has not been registered\");\n        return _tokenOwner[tokenId];\n    }\n\n//    @dev Approves another address to transfer the given token ID\n    function approve(address to, uint256 tokenId) public {\n        require(_tokenOwner[tokenId] != address(0), \"This token ID has not been registered\");\n        require(to != _tokenOwner[tokenId], \"Address to transfer cannot be the owner\");\n        require( (isOwner(msg.sender) || isApprovedForAll(_tokenOwner[tokenId], to)), \"Operation not approved\");\n\n        _tokenApprovals[tokenId] = to;\n\n        emit Approval(msg.sender, to, tokenId);\n        // TODO require the given address to not be the owner of the tokenId\n\n        // TODO require the msg sender to be the owner of the contract or isApprovedForAll() to be true\n\n        // TODO add 'to' address to token approvals\n\n        // TODO emit Approval Event\n\n    }\n\n    function getApproved(uint256 tokenId) public view returns (address) {\n        require(_tokenOwner[tokenId] != address(0), \"This token ID has not been registered\");\n        return _tokenApprovals[tokenId];\n        // TODO return token approval if it exists\n    }\n\n    /**\n     * @dev Sets or unsets the approval of a given operator\n     * An operator is allowed to transfer all tokens of the sender on their behalf\n     * @param to operator address to set the approval\n     * @param approved representing the status of the approval to be set\n     */\n    function setApprovalForAll(address to, bool approved) public {\n        require(to != msg.sender, \"Caller and To cannot be the same\");\n        _operatorApprovals[msg.sender][to] = approved;\n        emit ApprovalForAll(msg.sender, to, approved);\n    }\n\n    /**\n     * @dev Tells whether an operator is approved by a given owner\n     * @param owner owner address which you want to query the approval of\n     * @param operator operator address which you want to query the approval of\n     * @return bool whether the given operator is approved by the given owner\n     */\n    function isApprovedForAll(address owner, address operator) public view returns (bool) {\n        return _operatorApprovals[owner][operator];\n    }\n\n    function transferFrom(address from, address to, uint256 tokenId) public {\n        require(_isApprovedOrOwner(msg.sender, tokenId));\n\n        _transferFrom(from, to, tokenId);\n    }\n\n    function safeTransferFrom(address from, address to, uint256 tokenId) public {\n        safeTransferFrom(from, to, tokenId, \"\");\n    }\n\n    function safeTransferFrom(address from, address to, uint256 tokenId, bytes memory _data) public {\n        transferFrom(from, to, tokenId);\n        require(_checkOnERC721Received(from, to, tokenId, _data), \"ERC721 Stuff\");\n    }\n\n    /**\n     * @dev Returns whether the specified token exists\n     * @param tokenId uint256 ID of the token to query the existence of\n     * @return bool whether the token exists\n     */\n    function _exists(uint256 tokenId) internal view returns (bool) {\n        address owner = _tokenOwner[tokenId];\n        return owner != address(0);\n    }\n\n    /**\n     * @dev Returns whether the given spender can transfer a given token ID\n     * @param spender address of the spender to query\n     * @param tokenId uint256 ID of the token to be transferred\n     * @return bool whether the msg.sender is approved for the given token ID,\n     * is an operator of the owner, or is the owner of the token\n     */\n    function _isApprovedOrOwner(address spender, uint256 tokenId) internal view returns (bool) {\n        address owner = ownerOf(tokenId);\n        return (spender == owner || getApproved(tokenId) == spender || isApprovedForAll(owner, spender));\n    }\n\n    // @dev Internal function to mint a new token\n    // TIP: remember the functions to use for Counters. you can refresh yourself with the link above\n    function _mint(address to, uint256 tokenId) internal {\n        require(to != address(0), \"Cannot mint a token to address 0x00\");\n        require(!_exists(tokenId), \"TokenId already exists\");\n        emit Flag(true);\n        _tokenOwner[tokenId] = to;\n        emit Flag(true);\n        _ownedTokensCount[to].increment();        \n\n        emit Transfer(msg.sender, to, tokenId);\n\n        // TODO revert if given tokenId already exists or given address is invalid\n  \n        // TODO mint tokenId to given address & increase token count of owner\n\n        // TODO emit Transfer event\n    }\n\n    // @dev Internal function to transfer ownership of a given token ID to another address.\n    // TIP: remember the functions to use for Counters. you can refresh yourself with the link above\n    function _transferFrom(address from, address to, uint256 tokenId) internal virtual {\n        require(to != address(0), \"Cannot mint a token to address 0x00\");\n        require(_exists(tokenId), \"TokenId doesnt exists\");\n        require(_isApprovedOrOwner(from, tokenId), \"from Address is not the owner of the token\");\n\n        //Clear current aprovals to avoid double transfer.\n        _clearApproval(tokenId);\n\n        _ownedTokensCount[from].decrement();\n        _ownedTokensCount[to].increment();\n\n        _tokenOwner[tokenId] = to;\n\n        emit Transfer(from, to, tokenId);\n \n    }\n\n    /**\n     * @dev Internal function to invoke `onERC721Received` on a target address\n     * The call is not executed if the target address is not a contract\n     * @param from address representing the previous owner of the given token ID\n     * @param to target address that will receive the tokens\n     * @param tokenId uint256 ID of the token to be transferred\n     * @param _data bytes optional data to send along with the call\n     * @return bool whether the call correctly returned the expected magic value\n     */\n    function _checkOnERC721Received(address from, address to, uint256 tokenId, bytes memory _data)\n        internal returns (bool)\n    {\n        if (!to.isContract()) {\n            return true;\n        }\n\n        bytes4 retval = IERC721Receiver(to).onERC721Received(msg.sender, from, tokenId, _data);\n        return (retval == _ERC721_RECEIVED);\n    }\n\n    // @dev Private function to clear current approval of a given token ID\n    function _clearApproval(uint256 tokenId) private {\n        if (_tokenApprovals[tokenId] != address(0)) {\n            _tokenApprovals[tokenId] = address(0);\n        }\n    }\n}\n\ncontract ERC721Enumerable is ERC165, ERC721 {\n    // Mapping from owner to list of owned token IDs\n    mapping(address => uint256[]) private _ownedTokens;\n\n    // Mapping from token ID to index of the owner tokens list\n    mapping(uint256 => uint256) private _ownedTokensIndex;\n\n    // Array with all token ids, used for enumeration\n    uint256[] private _allTokens;\n\n    // Mapping from token id to position in the allTokens array\n    mapping(uint256 => uint256) private _allTokensIndex;\n\n    bytes4 private constant _INTERFACE_ID_ERC721_ENUMERABLE = 0x780e9d63;\n    /*\n     * 0x780e9d63 ===\n     *     bytes4(keccak256('totalSupply()')) ^\n     *     bytes4(keccak256('tokenOfOwnerByIndex(address,uint256)')) ^\n     *     bytes4(keccak256('tokenByIndex(uint256)'))\n     */\n\n    /**\n     * @dev Constructor function\n     */\n    constructor () {\n        // register the supported interface to conform to ERC721Enumerable via ERC165\n        _registerInterface(_INTERFACE_ID_ERC721_ENUMERABLE);\n    }\n\n    /**\n     * @dev Gets the token ID at a given index of the tokens list of the requested owner\n     * @param owner address owning the tokens list to be accessed\n     * @param index uint256 representing the index to be accessed of the requested tokens list\n     * @return uint256 token ID at the given index of the tokens list owned by the requested address\n     */\n    function tokenOfOwnerByIndex(address owner, uint256 index) public view returns (uint256) {\n        require(index < balanceOf(owner), \"BalanceOf Problems\");\n        return _ownedTokens[owner][index];\n    }\n\n    /**\n     * @dev Gets the total amount of tokens stored by the contract\n     * @return uint256 representing the total amount of tokens\n     */\n    function totalSupply() public view returns (uint256) {\n        return _allTokens.length;\n    }\n\n    /**\n     * @dev Gets the token ID at a given index of all the tokens in this contract\n     * Reverts if the index is greater or equal to the total number of tokens\n     * @param index uint256 representing the index to be accessed of the tokens list\n     * @return uint256 token ID at the given index of the tokens list\n     */\n    function tokenByIndex(uint256 index) public view returns (uint256) {\n        require(index < totalSupply(), \"Total Supply problems\");\n        return _allTokens[index];\n    }\n\n    /**\n     * @dev Internal function to transfer ownership of a given token ID to another address.\n     * As opposed to transferFrom, this imposes no restrictions on msg.sender.\n     * @param from current owner of the token\n     * @param to address to receive the ownership of the given token ID\n     * @param tokenId uint256 ID of the token to be transferred\n     */\n    function _transferFrom(address from, address to, uint256 tokenId) override internal {\n        super._transferFrom(from, to, tokenId);\n\n        _removeTokenFromOwnerEnumeration(from, tokenId);\n\n        _addTokenToOwnerEnumeration(to, tokenId);\n    }\n\n    /**\n     * @dev Internal function to mint a new token\n     * Reverts if the given token ID already exists\n     * @param to address the beneficiary that will own the minted token\n     * @param tokenId uint256 ID of the token to be minted\n     */\n    function __mint(address to, uint256 tokenId) internal {\n        super._mint(to, tokenId);        \n\n        _addTokenToOwnerEnumeration(to, tokenId);\n\n        _addTokenToAllTokensEnumeration(tokenId);\n    }\n\n    /**\n     * @dev Gets the list of token IDs of the requested owner\n     * @param owner address owning the tokens\n     * @return uint256[] List of token IDs owned by the requested address\n     */\n    function _tokensOfOwner(address owner) internal view returns (uint256[] storage) {\n        return _ownedTokens[owner];\n    }\n\n    /**\n     * @dev Private function to add a token to this extension's ownership-tracking data structures.\n     * @param to address representing the new owner of the given token ID\n     * @param tokenId uint256 ID of the token to be added to the tokens list of the given address\n     */\n    function _addTokenToOwnerEnumeration(address to, uint256 tokenId) private {\n        _ownedTokensIndex[tokenId] = _ownedTokens[to].length;\n        _ownedTokens[to].push(tokenId);\n    }\n\n    /**\n     * @dev Private function to add a token to this extension's token tracking data structures.\n     * @param tokenId uint256 ID of the token to be added to the tokens list\n     */\n    function _addTokenToAllTokensEnumeration(uint256 tokenId) private {\n        _allTokensIndex[tokenId] = _allTokens.length;\n        _allTokens.push(tokenId);\n    }\n\n    /**\n     * @dev Private function to remove a token from this extension's ownership-tracking data structures. Note that\n     * while the token is not assigned a new owner, the _ownedTokensIndex mapping is _not_ updated: this allows for\n     * gas optimizations e.g. when performing a transfer operation (avoiding double writes).\n     * This has O(1) time complexity, but alters the order of the _ownedTokens array.\n     * @param from address representing the previous owner of the given token ID\n     * @param tokenId uint256 ID of the token to be removed from the tokens list of the given address\n     */\n    function _removeTokenFromOwnerEnumeration(address from, uint256 tokenId) private {\n        // To prevent a gap in from's tokens array, we store the last token in the index of the token to delete, and\n        // then delete the last slot (swap and pop).\n\n        uint256 lastTokenIndex = _ownedTokens[from].length - 1;\n        uint256 tokenIndex = _ownedTokensIndex[tokenId];\n\n        // When the token to delete is the last token, the swap operation is unnecessary\n        if (tokenIndex != lastTokenIndex) {\n            uint256 lastTokenId = _ownedTokens[from][lastTokenIndex];\n\n            _ownedTokens[from][tokenIndex] = lastTokenId; // Move the last token to the slot of the to-delete token\n            _ownedTokensIndex[lastTokenId] = tokenIndex; // Update the moved token's index\n        }\n\n        // This also deletes the contents at the last position of the array\n        _ownedTokens[from].pop();\n\n        // Note that _ownedTokensIndex[tokenId] hasn't been cleared: it still points to the old slot (now occupied by\n        // lastTokenId, or just over the end of the array if the token was the last one).\n    }\n\n    /**\n     * @dev Private function to remove a token from this extension's token tracking data structures.\n     * This has O(1) time complexity, but alters the order of the _allTokens array.\n     * @param tokenId uint256 ID of the token to be removed from the tokens list\n     */\n    function _removeTokenFromAllTokensEnumeration(uint256 tokenId) private {\n        // To prevent a gap in the tokens array, we store the last token in the index of the token to delete, and\n        // then delete the last slot (swap and pop).\n\n        uint256 lastTokenIndex = _allTokens.length - 1;\n        uint256 tokenIndex = _allTokensIndex[tokenId];\n\n        // When the token to delete is the last token, the swap operation is unnecessary. However, since this occurs so\n        // rarely (when the last minted token is burnt) that we still do the swap here to avoid the gas cost of adding\n        // an 'if' statement (like in _removeTokenFromOwnerEnumeration)\n        uint256 lastTokenId = _allTokens[lastTokenIndex];\n\n        _allTokens[tokenIndex] = lastTokenId; // Move the last token to the slot of the to-delete token\n        _allTokensIndex[lastTokenId] = tokenIndex; // Update the moved token's index\n\n        // This also deletes the contents at the last position of the array\n        _allTokens.pop();\n        _allTokensIndex[tokenId] = 0;\n    }\n}\n\ncontract ERC721Metadata is ERC721Enumerable, usingProvable {\n    \n    string private _name;\n    string private _symbol;\n    string private _baseTokenURI;\n\n    mapping (uint256 => string) private _tokenURIs;\n\n    // TODO: Create private vars for token _name, _symbol, and _baseTokenURI (string)\n\n    // TODO: create private mapping of tokenId's to token uri's called '_tokenURIs'\n\n    bytes4 private constant _INTERFACE_ID_ERC721_METADATA = 0x5b5e139f;\n    /*\n     * 0x5b5e139f ===\n     *     bytes4(keccak256('name()')) ^\n     *     bytes4(keccak256('symbol()')) ^\n     *     bytes4(keccak256('tokenURI(uint256)'))\n     */\n\n\n    constructor (string memory name, string memory symbol, string memory baseTokenURI) {\n        // TODO: set instance var values\n\n        _registerInterface(_INTERFACE_ID_ERC721_METADATA);\n        _name = name;\n        _symbol = symbol;\n        _baseTokenURI = baseTokenURI;\n    }\n\n    // TODO: create external getter functions for name, symbol, and baseTokenURI\n\n    function getName() external view returns(string memory name) {\n        return _name;\n    }\n\n    function get_symbol() external view returns(string memory symbol) {\n        return _symbol;\n    }\n\n    function get_baseTokenURI() external view returns(string memory uri) {\n        return _baseTokenURI;\n    }\n\n    function tokenURI(uint256 tokenId) external view returns (string memory) {\n        require(_exists(tokenId), \"tokenID doesnt exists\");\n        return _tokenURIs[tokenId];\n    }\n\n    function setTokenURI(uint256 tokenID) internal{\n        require(_exists(tokenID), \"Token ID doesnt exists\");        \n        _tokenURIs[tokenID] = string(abi.encodePacked(_baseTokenURI, uint2STR(tokenID)));\n    }\n\n    function ___mint(address to, uint256 tokenID) internal onlyOwner returns(bool) {     \n        super.__mint(to, tokenID);\n        setTokenURI(tokenID);\n        return true;\n    }\n\n    function uint2STR(uint _i) internal pure returns (string memory _uintAsString) {\n        if (_i == 0) {\n            return \"0\";\n        }\n        uint j = _i;\n        uint len;\n        while (j != 0) {\n            len++;\n            j /= 10;\n        }\n        bytes memory bstr = new bytes(len);\n        uint k = len;\n        while (_i != 0) {\n            k = k-1;\n            uint8 temp = (48 + uint8(_i - _i / 10 * 10));\n            bytes1 b1 = bytes1(temp);\n            bstr[k] = b1;\n            _i /= 10;\n        }\n        return string(bstr);\n    }\n\n    // TODO: Create an internal function to set the tokenURI of a specified tokenId\n    // It should be the _baseTokenURI + the tokenId in string form\n    // TIP #1: use strConcat() from the imported oraclizeAPI lib to set the complete token URI\n    // TIP #2: you can also use uint2str() to convert a uint to a string\n        // see https://github.com/oraclize/ethereum-api/blob/master/oraclizeAPI_0.5.sol for strConcat()\n    // require the token exists before setting\n}\n\ncontract ERC721Mintable is ERC721Metadata(\"AGROS\", \"AGR\", \"https://s3-us-west-2.amazonaws.com/udacity-blockchain/capstone/\"){\n    constructor() {}\n\n    function mint(address to, uint256 tokenID) public onlyOwner returns(bool) {      \n        emit Flag(true);  \n        super.___mint(to, tokenID);\n        super.setTokenURI(tokenID);\n        return true;\n    }\n}",
  "sourcePath": "/home/rob/Documents/Repos/blockchain_course/NFTProject/contracts/ERC721Mintable.sol",
  "compiler": {
    "name": "solc",
    "version": "0.8.11+commit.d7f03943.Emscripten.clang"
  },
  "schemaVersion": "3.4.3",
  "updatedAt": "2022-01-28T02:08:32.271Z",
  "devdoc": {
    "kind": "dev",
    "methods": {
      "__callback(bytes32,string)": {
        "details": "The following `__callback` functions are just placeholders ideally      meant to be defined in child contract when proofs are used.      The function bodies simply silence compiler warnings."
      },
      "isApprovedForAll(address,address)": {
        "details": "Tells whether an operator is approved by a given owner",
        "params": {
          "operator": "operator address which you want to query the approval of",
          "owner": "owner address which you want to query the approval of"
        },
        "returns": {
          "_0": "bool whether the given operator is approved by the given owner"
        }
      },
      "setApprovalForAll(address,bool)": {
        "details": "Sets or unsets the approval of a given operator An operator is allowed to transfer all tokens of the sender on their behalf",
        "params": {
          "approved": "representing the status of the approval to be set",
          "to": "operator address to set the approval"
        }
      },
      "supportsInterface(bytes4)": {
        "details": "implement supportsInterface(bytes4) using a lookup table"
      },
      "tokenByIndex(uint256)": {
        "details": "Gets the token ID at a given index of all the tokens in this contract Reverts if the index is greater or equal to the total number of tokens",
        "params": {
          "index": "uint256 representing the index to be accessed of the tokens list"
        },
        "returns": {
          "_0": "uint256 token ID at the given index of the tokens list"
        }
      },
      "tokenOfOwnerByIndex(address,uint256)": {
        "details": "Gets the token ID at a given index of the tokens list of the requested owner",
        "params": {
          "index": "uint256 representing the index to be accessed of the requested tokens list",
          "owner": "address owning the tokens list to be accessed"
        },
        "returns": {
          "_0": "uint256 token ID at the given index of the tokens list owned by the requested address"
        }
      },
      "totalSupply()": {
        "details": "Gets the total amount of tokens stored by the contract",
        "returns": {
          "_0": "uint256 representing the total amount of tokens"
        }
      }
    },
    "version": 1
  },
  "userdoc": {
    "kind": "user",
    "methods": {},
    "version": 1
  }
}