{
  "contractName": "ERC721Mintable",
  "abi": [
    {
      "inputs": [],
      "stateMutability": "nonpayable",
      "type": "constructor"
    },
    {
      "anonymous": false,
      "inputs": [
        {
          "indexed": true,
          "internalType": "address",
          "name": "owner",
          "type": "address"
        },
        {
          "indexed": true,
          "internalType": "address",
          "name": "approved",
          "type": "address"
        },
        {
          "indexed": true,
          "internalType": "uint256",
          "name": "tokenId",
          "type": "uint256"
        }
      ],
      "name": "Approval",
      "type": "event"
    },
    {
      "anonymous": false,
      "inputs": [
        {
          "indexed": true,
          "internalType": "address",
          "name": "owner",
          "type": "address"
        },
        {
          "indexed": true,
          "internalType": "address",
          "name": "operator",
          "type": "address"
        },
        {
          "indexed": false,
          "internalType": "bool",
          "name": "approved",
          "type": "bool"
        }
      ],
      "name": "ApprovalForAll",
      "type": "event"
    },
    {
      "anonymous": false,
      "inputs": [
        {
          "indexed": false,
          "internalType": "bool",
          "name": "flag",
          "type": "bool"
        }
      ],
      "name": "Flag",
      "type": "event"
    },
    {
      "anonymous": false,
      "inputs": [
        {
          "indexed": false,
          "internalType": "address",
          "name": "caller",
          "type": "address"
        }
      ],
      "name": "Paused",
      "type": "event"
    },
    {
      "anonymous": false,
      "inputs": [
        {
          "indexed": true,
          "internalType": "address",
          "name": "from",
          "type": "address"
        },
        {
          "indexed": true,
          "internalType": "address",
          "name": "to",
          "type": "address"
        },
        {
          "indexed": true,
          "internalType": "uint256",
          "name": "tokenId",
          "type": "uint256"
        }
      ],
      "name": "Transfer",
      "type": "event"
    },
    {
      "anonymous": false,
      "inputs": [
        {
          "indexed": false,
          "internalType": "address",
          "name": "caller",
          "type": "address"
        }
      ],
      "name": "Unpaused",
      "type": "event"
    },
    {
      "anonymous": false,
      "inputs": [
        {
          "indexed": false,
          "internalType": "address",
          "name": "newAddress",
          "type": "address"
        }
      ],
      "name": "onwerShipTransfer",
      "type": "event"
    },
    {
      "inputs": [
        {
          "internalType": "bytes32",
          "name": "_myid",
          "type": "bytes32"
        },
        {
          "internalType": "string",
          "name": "_result",
          "type": "string"
        }
      ],
      "name": "__callback",
      "outputs": [],
      "stateMutability": "nonpayable",
      "type": "function"
    },
    {
      "inputs": [
        {
          "internalType": "bytes32",
          "name": "_myid",
          "type": "bytes32"
        },
        {
          "internalType": "string",
          "name": "_result",
          "type": "string"
        },
        {
          "internalType": "bytes",
          "name": "_proof",
          "type": "bytes"
        }
      ],
      "name": "__callback",
      "outputs": [],
      "stateMutability": "nonpayable",
      "type": "function"
    },
    {
      "inputs": [
        {
          "internalType": "address",
          "name": "to",
          "type": "address"
        },
        {
          "internalType": "uint256",
          "name": "tokenId",
          "type": "uint256"
        }
      ],
      "name": "approve",
      "outputs": [],
      "stateMutability": "nonpayable",
      "type": "function"
    },
    {
      "inputs": [
        {
          "internalType": "address",
          "name": "owner",
          "type": "address"
        }
      ],
      "name": "balanceOf",
      "outputs": [
        {
          "internalType": "uint256",
          "name": "",
          "type": "uint256"
        }
      ],
      "stateMutability": "view",
      "type": "function"
    },
    {
      "inputs": [
        {
          "internalType": "uint256",
          "name": "tokenId",
          "type": "uint256"
        }
      ],
      "name": "getApproved",
      "outputs": [
        {
          "internalType": "address",
          "name": "",
          "type": "address"
        }
      ],
      "stateMutability": "view",
      "type": "function"
    },
    {
      "inputs": [],
      "name": "getName",
      "outputs": [
        {
          "internalType": "string",
          "name": "name",
          "type": "string"
        }
      ],
      "stateMutability": "view",
      "type": "function"
    },
    {
      "inputs": [],
      "name": "getOwner",
      "outputs": [
        {
          "internalType": "address",
          "name": "addr",
          "type": "address"
        }
      ],
      "stateMutability": "view",
      "type": "function"
    },
    {
      "inputs": [],
      "name": "get_baseTokenURI",
      "outputs": [
        {
          "internalType": "string",
          "name": "uri",
          "type": "string"
        }
      ],
      "stateMutability": "view",
      "type": "function"
    },
    {
      "inputs": [],
      "name": "get_symbol",
      "outputs": [
        {
          "internalType": "string",
          "name": "symbol",
          "type": "string"
        }
      ],
      "stateMutability": "view",
      "type": "function"
    },
    {
      "inputs": [
        {
          "internalType": "address",
          "name": "owner",
          "type": "address"
        },
        {
          "internalType": "address",
          "name": "operator",
          "type": "address"
        }
      ],
      "name": "isApprovedForAll",
      "outputs": [
        {
          "internalType": "bool",
          "name": "",
          "type": "bool"
        }
      ],
      "stateMutability": "view",
      "type": "function"
    },
    {
      "inputs": [
        {
          "internalType": "uint256",
          "name": "tokenId",
          "type": "uint256"
        }
      ],
      "name": "ownerOf",
      "outputs": [
        {
          "internalType": "address",
          "name": "",
          "type": "address"
        }
      ],
      "stateMutability": "view",
      "type": "function"
    },
    {
      "inputs": [
        {
          "internalType": "address",
          "name": "from",
          "type": "address"
        },
        {
          "internalType": "address",
          "name": "to",
          "type": "address"
        },
        {
          "internalType": "uint256",
          "name": "tokenId",
          "type": "uint256"
        }
      ],
      "name": "safeTransferFrom",
      "outputs": [],
      "stateMutability": "nonpayable",
      "type": "function"
    },
    {
      "inputs": [
        {
          "internalType": "address",
          "name": "from",
          "type": "address"
        },
        {
          "internalType": "address",
          "name": "to",
          "type": "address"
        },
        {
          "internalType": "uint256",
          "name": "tokenId",
          "type": "uint256"
        },
        {
          "internalType": "bytes",
          "name": "_data",
          "type": "bytes"
        }
      ],
      "name": "safeTransferFrom",
      "outputs": [],
      "stateMutability": "nonpayable",
      "type": "function"
    },
    {
      "inputs": [
        {
          "internalType": "address",
          "name": "to",
          "type": "address"
        },
        {
          "internalType": "bool",
          "name": "approved",
          "type": "bool"
        }
      ],
      "name": "setApprovalForAll",
      "outputs": [],
      "stateMutability": "nonpayable",
      "type": "function"
    },
    {
      "inputs": [
        {
          "internalType": "bool",
          "name": "state",
          "type": "bool"
        }
      ],
      "name": "setPause",
      "outputs": [],
      "stateMutability": "nonpayable",
      "type": "function"
    },
    {
      "inputs": [
        {
          "internalType": "bytes4",
          "name": "interfaceId",
          "type": "bytes4"
        }
      ],
      "name": "supportsInterface",
      "outputs": [
        {
          "internalType": "bool",
          "name": "",
          "type": "bool"
        }
      ],
      "stateMutability": "view",
      "type": "function"
    },
    {
      "inputs": [
        {
          "internalType": "uint256",
          "name": "index",
          "type": "uint256"
        }
      ],
      "name": "tokenByIndex",
      "outputs": [
        {
          "internalType": "uint256",
          "name": "",
          "type": "uint256"
        }
      ],
      "stateMutability": "view",
      "type": "function"
    },
    {
      "inputs": [
        {
          "internalType": "address",
          "name": "owner",
          "type": "address"
        },
        {
          "internalType": "uint256",
          "name": "index",
          "type": "uint256"
        }
      ],
      "name": "tokenOfOwnerByIndex",
      "outputs": [
        {
          "internalType": "uint256",
          "name": "",
          "type": "uint256"
        }
      ],
      "stateMutability": "view",
      "type": "function"
    },
    {
      "inputs": [
        {
          "internalType": "uint256",
          "name": "tokenId",
          "type": "uint256"
        }
      ],
      "name": "tokenURI",
      "outputs": [
        {
          "internalType": "string",
          "name": "",
          "type": "string"
        }
      ],
      "stateMutability": "view",
      "type": "function"
    },
    {
      "inputs": [],
      "name": "totalSupply",
      "outputs": [
        {
          "internalType": "uint256",
          "name": "",
          "type": "uint256"
        }
      ],
      "stateMutability": "view",
      "type": "function"
    },
    {
      "inputs": [
        {
          "internalType": "address",
          "name": "from",
          "type": "address"
        },
        {
          "internalType": "address",
          "name": "to",
          "type": "address"
        },
        {
          "internalType": "uint256",
          "name": "tokenId",
          "type": "uint256"
        }
      ],
      "name": "transferFrom",
      "outputs": [],
      "stateMutability": "nonpayable",
      "type": "function"
    },
    {
      "inputs": [
        {
          "internalType": "address",
          "name": "newOwner",
          "type": "address"
        }
      ],
      "name": "transferOwnership",
      "outputs": [],
      "stateMutability": "nonpayable",
      "type": "function"
    },
    {
      "inputs": [
        {
          "internalType": "address",
          "name": "to",
          "type": "address"
        },
        {
          "internalType": "uint256",
          "name": "tokenID",
          "type": "uint256"
        }
      ],
      "name": "mint",
      "outputs": [
        {
          "internalType": "bool",
          "name": "",
          "type": "bool"
        }
      ],
      "stateMutability": "nonpayable",
      "type": "function"
    }
  ],
  "bytecode": "0x60806040523480156200001157600080fd5b506040518060400160405280600581526020017f4147524f530000000000000000000000000000000000000000000000000000008152506040518060400160405280600381526020017f41475200000000000000000000000000000000000000000000000000000000008152506040518060600160405280603f815260200162003c45603f9139336000806101000a81548173ffffffffffffffffffffffffffffffffffffffff021916908373ffffffffffffffffffffffffffffffffffffffff1602179055507fe8417b5d798d3ccbb528cfc2e9a0130bfba2ab210859375d6dcfd2019f6772fc33604051620001099190620003ac565b60405180910390a160008060146101000a81548160ff021916908315150217905550620001436301ffc9a760e01b620001df60201b60201c565b6200015b6380ac58cd60e01b620001df60201b60201c565b6200017363780e9d6360e01b620001df60201b60201c565b6200018b635b5e139f60e01b620001df60201b60201c565b82600f9080519060200190620001a3929190620002b7565b508160109080519060200190620001bc929190620002b7565b508060119080519060200190620001d5929190620002b7565b50505050620004b1565b63ffffffff60e01b817bffffffffffffffffffffffffffffffffffffffffffffffffffffffff191614156200024b576040517f08c379a000000000000000000000000000000000000000000000000000000000815260040162000242906200042a565b60405180910390fd5b6001806000837bffffffffffffffffffffffffffffffffffffffffffffffffffffffff19167bffffffffffffffffffffffffffffffffffffffffffffffffffffffff1916815260200190815260200160002060006101000a81548160ff02191690831515021790555050565b828054620002c5906200047b565b90600052602060002090601f016020900481019282620002e9576000855562000335565b82601f106200030457805160ff191683800117855562000335565b8280016001018555821562000335579182015b828111156200033457825182559160200191906001019062000317565b5b50905062000344919062000348565b5090565b5b808211156200036357600081600090555060010162000349565b5090565b600073ffffffffffffffffffffffffffffffffffffffff82169050919050565b6000620003948262000367565b9050919050565b620003a68162000387565b82525050565b6000602082019050620003c360008301846200039b565b92915050565b600082825260208201905092915050565b7f496e746572666163652049442073747566660000000000000000000000000000600082015250565b600062000412601283620003c9565b91506200041f82620003da565b602082019050919050565b60006020820190508181036000830152620004458162000403565b9050919050565b7f4e487b7100000000000000000000000000000000000000000000000000000000600052602260045260246000fd5b600060028204905060018216806200049457607f821691505b60208210811415620004ab57620004aa6200044c565b5b50919050565b61378480620004c16000396000f3fe608060405234801561001057600080fd5b506004361061014d5760003560e01c806342842e0e116100c3578063a22cb4651161007c578063a22cb465146103c4578063b88d4fde146103e0578063bedb86fb146103fc578063c87b56dd14610418578063e985e9c514610448578063f2fde38b146104785761014d565b806342842e0e146102dc5780634f6ccce7146102f857806354663ee1146103285780636352211e1461034657806370a0823114610376578063893d20e8146103a65761014d565b806323b872dd1161011557806323b872dd1461020a57806327dc297e146102265780632f745c5914610242578063301b5ab81461027257806338bbfa501461029057806340c10f19146102ac5761014d565b806301ffc9a714610152578063081812fc14610182578063095ea7b3146101b257806317d7de7c146101ce57806318160ddd146101ec575b600080fd5b61016c600480360381019061016791906123e2565b610494565b604051610179919061242a565b60405180910390f35b61019c6004803603810190610197919061247b565b6104fc565b6040516101a991906124e9565b60405180910390f35b6101cc60048036038101906101c79190612530565b6105db565b005b6101d661085d565b6040516101e39190612609565b60405180910390f35b6101f46108ef565b604051610201919061263a565b60405180910390f35b610224600480360381019061021f9190612655565b6108fc565b005b610240600480360381019061023b9190612813565b61091f565b005b61025c60048036038101906102579190612530565b61097b565b604051610269919061263a565b60405180910390f35b61027a610a2b565b6040516102879190612609565b60405180910390f35b6102aa60048036038101906102a59190612910565b610abd565b005b6102c660048036038101906102c19190612530565b610ae0565b6040516102d3919061242a565b60405180910390f35b6102f660048036038101906102f19190612655565b610bc7565b005b610312600480360381019061030d919061247b565b610be7565b60405161031f919061263a565b60405180910390f35b610330610c58565b60405161033d9190612609565b60405180910390f35b610360600480360381019061035b919061247b565b610cea565b60405161036d91906124e9565b60405180910390f35b610390600480360381019061038b919061299b565b610dc9565b60405161039d919061263a565b60405180910390f35b6103ae610ea2565b6040516103bb91906124e9565b60405180910390f35b6103de60048036038101906103d991906129f4565b610ecb565b005b6103fa60048036038101906103f59190612a34565b611037565b005b61041660048036038101906104119190612ab7565b611093565b005b610432600480360381019061042d919061247b565b6111da565b60405161043f9190612609565b60405180910390f35b610462600480360381019061045d9190612ae4565b6112c7565b60405161046f919061242a565b60405180910390f35b610492600480360381019061048d919061299b565b61135b565b005b600060016000837bffffffffffffffffffffffffffffffffffffffffffffffffffffffff19167bffffffffffffffffffffffffffffffffffffffffffffffffffffffff1916815260200190815260200160002060009054906101000a900460ff169050919050565b60008073ffffffffffffffffffffffffffffffffffffffff166002600084815260200190815260200160002060009054906101000a900473ffffffffffffffffffffffffffffffffffffffff1673ffffffffffffffffffffffffffffffffffffffff1614156105a0576040517f08c379a000000000000000000000000000000000000000000000000000000000815260040161059790612b96565b60405180910390fd5b6003600083815260200190815260200160002060009054906101000a900473ffffffffffffffffffffffffffffffffffffffff169050919050565b600073ffffffffffffffffffffffffffffffffffffffff166002600083815260200190815260200160002060009054906101000a900473ffffffffffffffffffffffffffffffffffffffff1673ffffffffffffffffffffffffffffffffffffffff16141561067e576040517f08c379a000000000000000000000000000000000000000000000000000000000815260040161067590612b96565b60405180910390fd5b6002600082815260200190815260200160002060009054906101000a900473ffffffffffffffffffffffffffffffffffffffff1673ffffffffffffffffffffffffffffffffffffffff168273ffffffffffffffffffffffffffffffffffffffff161415610720576040517f08c379a000000000000000000000000000000000000000000000000000000000815260040161071790612c28565b60405180910390fd5b610729336114d3565b8061076d575061076c6002600083815260200190815260200160002060009054906101000a900473ffffffffffffffffffffffffffffffffffffffff16836112c7565b5b6107ac576040517f08c379a00000000000000000000000000000000000000000000000000000000081526004016107a390612c94565b60405180910390fd5b816003600083815260200190815260200160002060006101000a81548173ffffffffffffffffffffffffffffffffffffffff021916908373ffffffffffffffffffffffffffffffffffffffff160217905550808273ffffffffffffffffffffffffffffffffffffffff163373ffffffffffffffffffffffffffffffffffffffff167f8c5be1e5ebec7d5bd14f71427d1e84f3dd0314c0f7b2291e5b200ac8c7c3b92560405160405180910390a45050565b6060600f805461086c90612ce3565b80601f016020809104026020016040519081016040528092919081815260200182805461089890612ce3565b80156108e55780601f106108ba576101008083540402835291602001916108e5565b820191906000526020600020905b8154815290600101906020018083116108c857829003601f168201915b5050505050905090565b6000600880549050905090565b610906338261152b565b61090f57600080fd5b61091a8383836115c0565b505050565b6109778282600067ffffffffffffffff81111561093f5761093e6126e8565b5b6040519080825280601f01601f1916602001820160405280156109715781602001600182028036833780820191505090505b50610abd565b5050565b600061098683610dc9565b82106109c7576040517f08c379a00000000000000000000000000000000000000000000000000000000081526004016109be90612d61565b60405180910390fd5b600660008473ffffffffffffffffffffffffffffffffffffffff1673ffffffffffffffffffffffffffffffffffffffff1681526020019081526020016000208281548110610a1857610a17612d81565b5b9060005260206000200154905092915050565b606060108054610a3a90612ce3565b80601f0160208091040260200160405190810160405280929190818152602001828054610a6690612ce3565b8015610ab35780601f10610a8857610100808354040283529160200191610ab3565b820191906000526020600020905b815481529060010190602001808311610a9657829003601f168201915b5050505050905090565b6000801b600d60008060001b815260200190815260200160002081905550505050565b60008060009054906101000a900473ffffffffffffffffffffffffffffffffffffffff1673ffffffffffffffffffffffffffffffffffffffff163373ffffffffffffffffffffffffffffffffffffffff1614610b71576040517f08c379a0000000000000000000000000000000000000000000000000000000008152600401610b6890612e22565b60405180910390fd5b7fe145e7af4325483bf4c6332638929bf553f2f21bac737ea4d5b88d8a903368886001604051610ba1919061242a565b60405180910390a1610bb383836115e4565b50610bbd82611692565b6001905092915050565b610be283838360405180602001604052806000815250611037565b505050565b6000610bf16108ef565b8210610c32576040517f08c379a0000000000000000000000000000000000000000000000000000000008152600401610c2990612e8e565b60405180910390fd5b60088281548110610c4657610c45612d81565b5b90600052602060002001549050919050565b606060118054610c6790612ce3565b80601f0160208091040260200160405190810160405280929190818152602001828054610c9390612ce3565b8015610ce05780601f10610cb557610100808354040283529160200191610ce0565b820191906000526020600020905b815481529060010190602001808311610cc357829003601f168201915b5050505050905090565b60008073ffffffffffffffffffffffffffffffffffffffff166002600084815260200190815260200160002060009054906101000a900473ffffffffffffffffffffffffffffffffffffffff1673ffffffffffffffffffffffffffffffffffffffff161415610d8e576040517f08c379a0000000000000000000000000000000000000000000000000000000008152600401610d8590612b96565b60405180910390fd5b6002600083815260200190815260200160002060009054906101000a900473ffffffffffffffffffffffffffffffffffffffff169050919050565b600080610e13600460008573ffffffffffffffffffffffffffffffffffffffff1673ffffffffffffffffffffffffffffffffffffffff16815260200190815260200160002061172f565b1415610e54576040517f08c379a0000000000000000000000000000000000000000000000000000000008152600401610e4b90612efa565b60405180910390fd5b610e9b600460008473ffffffffffffffffffffffffffffffffffffffff1673ffffffffffffffffffffffffffffffffffffffff16815260200190815260200160002061172f565b9050919050565b60008060009054906101000a900473ffffffffffffffffffffffffffffffffffffffff16905090565b3373ffffffffffffffffffffffffffffffffffffffff168273ffffffffffffffffffffffffffffffffffffffff161415610f3a576040517f08c379a0000000000000000000000000000000000000000000000000000000008152600401610f3190612f66565b60405180910390fd5b80600560003373ffffffffffffffffffffffffffffffffffffffff1673ffffffffffffffffffffffffffffffffffffffff16815260200190815260200160002060008473ffffffffffffffffffffffffffffffffffffffff1673ffffffffffffffffffffffffffffffffffffffff16815260200190815260200160002060006101000a81548160ff0219169083151502179055508173ffffffffffffffffffffffffffffffffffffffff163373ffffffffffffffffffffffffffffffffffffffff167f17307eab39ab6107e8899845ad3d59bd9653f200f220920489ca2b5937696c318360405161102b919061242a565b60405180910390a35050565b6110428484846108fc565b61104e8484848461173d565b61108d576040517f08c379a000000000000000000000000000000000000000000000000000000000815260040161108490612fd2565b60405180910390fd5b50505050565b60008054906101000a900473ffffffffffffffffffffffffffffffffffffffff1673ffffffffffffffffffffffffffffffffffffffff163373ffffffffffffffffffffffffffffffffffffffff1614611121576040517f08c379a000000000000000000000000000000000000000000000000000000000815260040161111890612e22565b60405180910390fd5b801515600060149054906101000a900460ff161515146111d75780600060146101000a81548160ff02191690831515021790555060011515811515141561119e577f62e78cea01bee320cd4e420270b5ea74000d11b0c9f74754ebdbfc544b05a2583360405161119191906124e9565b60405180910390a16111d6565b7f5db9ee0a495bf2e6ff9c91a7834c1ba4fdd244a5e8aa4e537bd38aeae4b073aa336040516111cd91906124e9565b60405180910390a15b5b50565b60606111e582611845565b611224576040517f08c379a000000000000000000000000000000000000000000000000000000000815260040161121b9061303e565b60405180910390fd5b60126000838152602001908152602001600020805461124290612ce3565b80601f016020809104026020016040519081016040528092919081815260200182805461126e90612ce3565b80156112bb5780601f10611290576101008083540402835291602001916112bb565b820191906000526020600020905b81548152906001019060200180831161129e57829003601f168201915b50505050509050919050565b6000600560008473ffffffffffffffffffffffffffffffffffffffff1673ffffffffffffffffffffffffffffffffffffffff16815260200190815260200160002060008373ffffffffffffffffffffffffffffffffffffffff1673ffffffffffffffffffffffffffffffffffffffff16815260200190815260200160002060009054906101000a900460ff16905092915050565b60008054906101000a900473ffffffffffffffffffffffffffffffffffffffff1673ffffffffffffffffffffffffffffffffffffffff163373ffffffffffffffffffffffffffffffffffffffff16146113e9576040517f08c379a00000000000000000000000000000000000000000000000000000000081526004016113e090612e22565b60405180910390fd5b600073ffffffffffffffffffffffffffffffffffffffff168173ffffffffffffffffffffffffffffffffffffffff161415611459576040517f08c379a0000000000000000000000000000000000000000000000000000000008152600401611450906130aa565b60405180910390fd5b806000806101000a81548173ffffffffffffffffffffffffffffffffffffffff021916908373ffffffffffffffffffffffffffffffffffffffff1602179055507fe8417b5d798d3ccbb528cfc2e9a0130bfba2ab210859375d6dcfd2019f6772fc816040516114c891906124e9565b60405180910390a150565b60008173ffffffffffffffffffffffffffffffffffffffff1660008054906101000a900473ffffffffffffffffffffffffffffffffffffffff1673ffffffffffffffffffffffffffffffffffffffff16149050919050565b60008061153783610cea565b90508073ffffffffffffffffffffffffffffffffffffffff168473ffffffffffffffffffffffffffffffffffffffff1614806115a657508373ffffffffffffffffffffffffffffffffffffffff1661158e846104fc565b73ffffffffffffffffffffffffffffffffffffffff16145b806115b757506115b681856112c7565b5b91505092915050565b6115cb8383836118b7565b6115d58382611b01565b6115df8282611cb8565b505050565b60008060009054906101000a900473ffffffffffffffffffffffffffffffffffffffff1673ffffffffffffffffffffffffffffffffffffffff163373ffffffffffffffffffffffffffffffffffffffff1614611675576040517f08c379a000000000000000000000000000000000000000000000000000000000815260040161166c90612e22565b60405180910390fd5b61167f8383611d7c565b61168882611692565b6001905092915050565b61169b81611845565b6116da576040517f08c379a00000000000000000000000000000000000000000000000000000000081526004016116d190613116565b60405180910390fd5b60116116e582611d9d565b6040516020016116f6929190613206565b60405160208183030381529060405260126000838152602001908152602001600020908051906020019061172b9291906122d3565b5050565b600081600001549050919050565b600061175e8473ffffffffffffffffffffffffffffffffffffffff16611f26565b61176b576001905061183d565b60008473ffffffffffffffffffffffffffffffffffffffff1663150b7a02338887876040518563ffffffff1660e01b81526004016117ac949392919061327f565b6020604051808303816000875af11580156117cb573d6000803e3d6000fd5b505050506040513d601f19601f820116820180604052508101906117ef91906132e0565b905063150b7a0260e01b7bffffffffffffffffffffffffffffffffffffffffffffffffffffffff1916817bffffffffffffffffffffffffffffffffffffffffffffffffffffffff1916149150505b949350505050565b6000806002600084815260200190815260200160002060009054906101000a900473ffffffffffffffffffffffffffffffffffffffff169050600073ffffffffffffffffffffffffffffffffffffffff168173ffffffffffffffffffffffffffffffffffffffff161415915050919050565b600073ffffffffffffffffffffffffffffffffffffffff168273ffffffffffffffffffffffffffffffffffffffff161415611927576040517f08c379a000000000000000000000000000000000000000000000000000000000815260040161191e9061337f565b60405180910390fd5b61193081611845565b61196f576040517f08c379a0000000000000000000000000000000000000000000000000000000008152600401611966906133eb565b60405180910390fd5b611979838261152b565b6119b8576040517f08c379a00000000000000000000000000000000000000000000000000000000081526004016119af9061347d565b60405180910390fd5b6119c181611f39565b611a08600460008573ffffffffffffffffffffffffffffffffffffffff1673ffffffffffffffffffffffffffffffffffffffff168152602001908152602001600020611ff7565b611a4f600460008473ffffffffffffffffffffffffffffffffffffffff1673ffffffffffffffffffffffffffffffffffffffff168152602001908152602001600020612053565b816002600083815260200190815260200160002060006101000a81548173ffffffffffffffffffffffffffffffffffffffff021916908373ffffffffffffffffffffffffffffffffffffffff160217905550808273ffffffffffffffffffffffffffffffffffffffff168473ffffffffffffffffffffffffffffffffffffffff167fddf252ad1be2c89b69c2b068fc378daa952ba7f163c4a11628f55a4df523b3ef60405160405180910390a4505050565b60006001600660008573ffffffffffffffffffffffffffffffffffffffff1673ffffffffffffffffffffffffffffffffffffffff16815260200190815260200160002080549050611b5291906134cc565b9050600060076000848152602001908152602001600020549050818114611c4d576000600660008673ffffffffffffffffffffffffffffffffffffffff1673ffffffffffffffffffffffffffffffffffffffff1681526020019081526020016000208381548110611bc657611bc5612d81565b5b9060005260206000200154905080600660008773ffffffffffffffffffffffffffffffffffffffff1673ffffffffffffffffffffffffffffffffffffffff1681526020019081526020016000208381548110611c2557611c24612d81565b5b9060005260206000200181905550816007600083815260200190815260200160002081905550505b600660008573ffffffffffffffffffffffffffffffffffffffff1673ffffffffffffffffffffffffffffffffffffffff168152602001908152602001600020805480611c9c57611c9b613500565b5b6001900381819060005260206000200160009055905550505050565b600660008373ffffffffffffffffffffffffffffffffffffffff1673ffffffffffffffffffffffffffffffffffffffff168152602001908152602001600020805490506007600083815260200190815260200160002081905550600660008373ffffffffffffffffffffffffffffffffffffffff1673ffffffffffffffffffffffffffffffffffffffff1681526020019081526020016000208190806001815401808255809150506001900390600052602060002001600090919091909150555050565b611d868282612069565b611d908282611cb8565b611d998161228a565b5050565b60606000821415611de5576040518060400160405280600181526020017f30000000000000000000000000000000000000000000000000000000000000008152509050611f21565b600082905060005b60008214611e17578080611e009061352f565b915050600a82611e1091906135a7565b9150611ded565b60008167ffffffffffffffff811115611e3357611e326126e8565b5b6040519080825280601f01601f191660200182016040528015611e655781602001600182028036833780820191505090505b50905060008290505b60008614611f1957600181611e8391906134cc565b90506000600a8088611e9591906135a7565b611e9f91906135d8565b87611eaa91906134cc565b6030611eb6919061363f565b905060008160f81b905080848481518110611ed457611ed3612d81565b5b60200101907effffffffffffffffffffffffffffffffffffffffffffffffffffffffffffff1916908160001a905350600a88611f1091906135a7565b97505050611e6e565b819450505050505b919050565b600080823b905060008111915050919050565b600073ffffffffffffffffffffffffffffffffffffffff166003600083815260200190815260200160002060009054906101000a900473ffffffffffffffffffffffffffffffffffffffff1673ffffffffffffffffffffffffffffffffffffffff1614611ff45760006003600083815260200190815260200160002060006101000a81548173ffffffffffffffffffffffffffffffffffffffff021916908373ffffffffffffffffffffffffffffffffffffffff1602179055505b50565b60008160000154905060008111612043576040517f08c379a000000000000000000000000000000000000000000000000000000000815260040161203a906136c2565b60405180910390fd5b6001810382600001819055505050565b6001816000016000828254019250508190555050565b600073ffffffffffffffffffffffffffffffffffffffff168273ffffffffffffffffffffffffffffffffffffffff1614156120d9576040517f08c379a00000000000000000000000000000000000000000000000000000000081526004016120d09061337f565b60405180910390fd5b6120e281611845565b15612122576040517f08c379a00000000000000000000000000000000000000000000000000000000081526004016121199061372e565b60405180910390fd5b7fe145e7af4325483bf4c6332638929bf553f2f21bac737ea4d5b88d8a903368886001604051612152919061242a565b60405180910390a1816002600083815260200190815260200160002060006101000a81548173ffffffffffffffffffffffffffffffffffffffff021916908373ffffffffffffffffffffffffffffffffffffffff1602179055507fe145e7af4325483bf4c6332638929bf553f2f21bac737ea4d5b88d8a9033688860016040516121dc919061242a565b60405180910390a161222b600460008473ffffffffffffffffffffffffffffffffffffffff1673ffffffffffffffffffffffffffffffffffffffff168152602001908152602001600020612053565b808273ffffffffffffffffffffffffffffffffffffffff163373ffffffffffffffffffffffffffffffffffffffff167fddf252ad1be2c89b69c2b068fc378daa952ba7f163c4a11628f55a4df523b3ef60405160405180910390a45050565b6008805490506009600083815260200190815260200160002081905550600881908060018154018082558091505060019003906000526020600020016000909190919091505550565b8280546122df90612ce3565b90600052602060002090601f0160209004810192826123015760008555612348565b82601f1061231a57805160ff1916838001178555612348565b82800160010185558215612348579182015b8281111561234757825182559160200191906001019061232c565b5b5090506123559190612359565b5090565b5b8082111561237257600081600090555060010161235a565b5090565b6000604051905090565b600080fd5b600080fd5b60007fffffffff0000000000000000000000000000000000000000000000000000000082169050919050565b6123bf8161238a565b81146123ca57600080fd5b50565b6000813590506123dc816123b6565b92915050565b6000602082840312156123f8576123f7612380565b5b6000612406848285016123cd565b91505092915050565b60008115159050919050565b6124248161240f565b82525050565b600060208201905061243f600083018461241b565b92915050565b6000819050919050565b61245881612445565b811461246357600080fd5b50565b6000813590506124758161244f565b92915050565b60006020828403121561249157612490612380565b5b600061249f84828501612466565b91505092915050565b600073ffffffffffffffffffffffffffffffffffffffff82169050919050565b60006124d3826124a8565b9050919050565b6124e3816124c8565b82525050565b60006020820190506124fe60008301846124da565b92915050565b61250d816124c8565b811461251857600080fd5b50565b60008135905061252a81612504565b92915050565b6000806040838503121561254757612546612380565b5b60006125558582860161251b565b925050602061256685828601612466565b9150509250929050565b600081519050919050565b600082825260208201905092915050565b60005b838110156125aa57808201518184015260208101905061258f565b838111156125b9576000848401525b50505050565b6000601f19601f8301169050919050565b60006125db82612570565b6125e5818561257b565b93506125f581856020860161258c565b6125fe816125bf565b840191505092915050565b6000602082019050818103600083015261262381846125d0565b905092915050565b61263481612445565b82525050565b600060208201905061264f600083018461262b565b92915050565b60008060006060848603121561266e5761266d612380565b5b600061267c8682870161251b565b935050602061268d8682870161251b565b925050604061269e86828701612466565b9150509250925092565b6000819050919050565b6126bb816126a8565b81146126c657600080fd5b50565b6000813590506126d8816126b2565b92915050565b600080fd5b600080fd5b7f4e487b7100000000000000000000000000000000000000000000000000000000600052604160045260246000fd5b612720826125bf565b810181811067ffffffffffffffff8211171561273f5761273e6126e8565b5b80604052505050565b6000612752612376565b905061275e8282612717565b919050565b600067ffffffffffffffff82111561277e5761277d6126e8565b5b612787826125bf565b9050602081019050919050565b82818337600083830152505050565b60006127b66127b184612763565b612748565b9050828152602081018484840111156127d2576127d16126e3565b5b6127dd848285612794565b509392505050565b600082601f8301126127fa576127f96126de565b5b813561280a8482602086016127a3565b91505092915050565b6000806040838503121561282a57612829612380565b5b6000612838858286016126c9565b925050602083013567ffffffffffffffff81111561285957612858612385565b5b612865858286016127e5565b9150509250929050565b600067ffffffffffffffff82111561288a576128896126e8565b5b612893826125bf565b9050602081019050919050565b60006128b36128ae8461286f565b612748565b9050828152602081018484840111156128cf576128ce6126e3565b5b6128da848285612794565b509392505050565b600082601f8301126128f7576128f66126de565b5b81356129078482602086016128a0565b91505092915050565b60008060006060848603121561292957612928612380565b5b6000612937868287016126c9565b935050602084013567ffffffffffffffff81111561295857612957612385565b5b612964868287016127e5565b925050604084013567ffffffffffffffff81111561298557612984612385565b5b612991868287016128e2565b9150509250925092565b6000602082840312156129b1576129b0612380565b5b60006129bf8482850161251b565b91505092915050565b6129d18161240f565b81146129dc57600080fd5b50565b6000813590506129ee816129c8565b92915050565b60008060408385031215612a0b57612a0a612380565b5b6000612a198582860161251b565b9250506020612a2a858286016129df565b9150509250929050565b60008060008060808587031215612a4e57612a4d612380565b5b6000612a5c8782880161251b565b9450506020612a6d8782880161251b565b9350506040612a7e87828801612466565b925050606085013567ffffffffffffffff811115612a9f57612a9e612385565b5b612aab878288016128e2565b91505092959194509250565b600060208284031215612acd57612acc612380565b5b6000612adb848285016129df565b91505092915050565b60008060408385031215612afb57612afa612380565b5b6000612b098582860161251b565b9250506020612b1a8582860161251b565b9150509250929050565b7f5468697320746f6b656e20494420686173206e6f74206265656e20726567697360008201527f7465726564000000000000000000000000000000000000000000000000000000602082015250565b6000612b8060258361257b565b9150612b8b82612b24565b604082019050919050565b60006020820190508181036000830152612baf81612b73565b9050919050565b7f4164647265737320746f207472616e736665722063616e6e6f7420626520746860008201527f65206f776e657200000000000000000000000000000000000000000000000000602082015250565b6000612c1260278361257b565b9150612c1d82612bb6565b604082019050919050565b60006020820190508181036000830152612c4181612c05565b9050919050565b7f4f7065726174696f6e206e6f7420617070726f76656400000000000000000000600082015250565b6000612c7e60168361257b565b9150612c8982612c48565b602082019050919050565b60006020820190508181036000830152612cad81612c71565b9050919050565b7f4e487b7100000000000000000000000000000000000000000000000000000000600052602260045260246000fd5b60006002820490506001821680612cfb57607f821691505b60208210811415612d0f57612d0e612cb4565b5b50919050565b7f42616c616e63654f662050726f626c656d730000000000000000000000000000600082015250565b6000612d4b60128361257b565b9150612d5682612d15565b602082019050919050565b60006020820190508181036000830152612d7a81612d3e565b9050919050565b7f4e487b7100000000000000000000000000000000000000000000000000000000600052603260045260246000fd5b7f546869732066756e6374696f6e206a7573742063616e2062652063616c6c656e60008201527f6420627920746865206f776e6572206f662074686520636f6e74726163740000602082015250565b6000612e0c603e8361257b565b9150612e1782612db0565b604082019050919050565b60006020820190508181036000830152612e3b81612dff565b9050919050565b7f546f74616c20537570706c792070726f626c656d730000000000000000000000600082015250565b6000612e7860158361257b565b9150612e8382612e42565b602082019050919050565b60006020820190508181036000830152612ea781612e6b565b9050919050565b7f54686973206164647265737320646f65736e74206861766520746f6b656e7300600082015250565b6000612ee4601f8361257b565b9150612eef82612eae565b602082019050919050565b60006020820190508181036000830152612f1381612ed7565b9050919050565b7f43616c6c657220616e6420546f2063616e6e6f74206265207468652073616d65600082015250565b6000612f5060208361257b565b9150612f5b82612f1a565b602082019050919050565b60006020820190508181036000830152612f7f81612f43565b9050919050565b7f4552433732312053747566660000000000000000000000000000000000000000600082015250565b6000612fbc600c8361257b565b9150612fc782612f86565b602082019050919050565b60006020820190508181036000830152612feb81612faf565b9050919050565b7f746f6b656e494420646f65736e74206578697374730000000000000000000000600082015250565b600061302860158361257b565b915061303382612ff2565b602082019050919050565b600060208201905081810360008301526130578161301b565b9050919050565b7f4f776e65722063616e6e6f74206265205a65726f000000000000000000000000600082015250565b600061309460148361257b565b915061309f8261305e565b602082019050919050565b600060208201905081810360008301526130c381613087565b9050919050565b7f546f6b656e20494420646f65736e742065786973747300000000000000000000600082015250565b600061310060168361257b565b915061310b826130ca565b602082019050919050565b6000602082019050818103600083015261312f816130f3565b9050919050565b600081905092915050565b60008190508160005260206000209050919050565b6000815461316381612ce3565b61316d8186613136565b945060018216600081146131885760018114613199576131cc565b60ff198316865281860193506131cc565b6131a285613141565b60005b838110156131c4578154818901526001820191506020810190506131a5565b838801955050505b50505092915050565b60006131e082612570565b6131ea8185613136565b93506131fa81856020860161258c565b80840191505092915050565b60006132128285613156565b915061321e82846131d5565b91508190509392505050565b600081519050919050565b600082825260208201905092915050565b60006132518261322a565b61325b8185613235565b935061326b81856020860161258c565b613274816125bf565b840191505092915050565b600060808201905061329460008301876124da565b6132a160208301866124da565b6132ae604083018561262b565b81810360608301526132c08184613246565b905095945050505050565b6000815190506132da816123b6565b92915050565b6000602082840312156132f6576132f5612380565b5b6000613304848285016132cb565b91505092915050565b7f43616e6e6f74206d696e74206120746f6b656e20746f2061646472657373203060008201527f7830300000000000000000000000000000000000000000000000000000000000602082015250565b600061336960238361257b565b91506133748261330d565b604082019050919050565b600060208201905081810360008301526133988161335c565b9050919050565b7f546f6b656e496420646f65736e74206578697374730000000000000000000000600082015250565b60006133d560158361257b565b91506133e08261339f565b602082019050919050565b60006020820190508181036000830152613404816133c8565b9050919050565b7f66726f6d2041646472657373206973206e6f7420746865206f776e6572206f6660008201527f2074686520746f6b656e00000000000000000000000000000000000000000000602082015250565b6000613467602a8361257b565b91506134728261340b565b604082019050919050565b600060208201905081810360008301526134968161345a565b9050919050565b7f4e487b7100000000000000000000000000000000000000000000000000000000600052601160045260246000fd5b60006134d782612445565b91506134e283612445565b9250828210156134f5576134f461349d565b5b828203905092915050565b7f4e487b7100000000000000000000000000000000000000000000000000000000600052603160045260246000fd5b600061353a82612445565b91507fffffffffffffffffffffffffffffffffffffffffffffffffffffffffffffffff82141561356d5761356c61349d565b5b600182019050919050565b7f4e487b7100000000000000000000000000000000000000000000000000000000600052601260045260246000fd5b60006135b282612445565b91506135bd83612445565b9250826135cd576135cc613578565b5b828204905092915050565b60006135e382612445565b91506135ee83612445565b9250817fffffffffffffffffffffffffffffffffffffffffffffffffffffffffffffffff04831182151516156136275761362661349d565b5b828202905092915050565b600060ff82169050919050565b600061364a82613632565b915061365583613632565b92508260ff0382111561366b5761366a61349d565b5b828201905092915050565b7f436f756e7465723a2064656372656d656e74206f766572666c6f770000000000600082015250565b60006136ac601b8361257b565b91506136b782613676565b602082019050919050565b600060208201905081810360008301526136db8161369f565b9050919050565b7f546f6b656e496420616c72656164792065786973747300000000000000000000600082015250565b600061371860168361257b565b9150613723826136e2565b602082019050919050565b600060208201905081810360008301526137478161370b565b905091905056fea2646970667358221220a666da524aa809e0466f758e47680f27c047165cdf18f5afa214941971a8791964736f6c634300080b003368747470733a2f2f73332d75732d776573742d322e616d617a6f6e6177732e636f6d2f756461636974792d626c6f636b636861696e2f63617073746f6e652f",
  "immutableReferences": {},
  "source": "pragma solidity >=0.8.0;\n\nimport 'openzeppelin-solidity/contracts/utils/Address.sol';\nimport 'openzeppelin-solidity/contracts/utils/Counters.sol';\nimport 'openzeppelin-solidity/contracts/utils/math/SafeMath.sol';\nimport 'openzeppelin-solidity/contracts/token/ERC721/IERC721Receiver.sol';\nimport \"./Oraclize.sol\";\n\ncontract Ownable {\n    //  TODO's\n    //  1) create a private '_owner' variable of type address with a public getter function\n    //  2) create an internal constructor that sets the _owner var to the creater of the contract \n    //  3) create an 'onlyOwner' modifier that throws if called by any account other than the owner.\n    //  4) fill out the transferOwnership function\n    //  5) create an event that emits anytime ownerShip is transfered (including in the constructor)\n\n    address private _owner;\n\n    event onwerShipTransfer(address newAddress);\n\n    constructor (){\n        _owner = msg.sender;\n        emit onwerShipTransfer(msg.sender);\n    }\n\n    modifier onlyOwner() {\n        require(msg.sender == _owner, \"This function just can be callend by the owner of the contract\");\n        _;\n    }\n\n    function isOwner(address addr) internal view returns(bool){\n        return _owner == addr;\n    }\n\n    function getOwner() external view returns(address addr) {\n        return _owner;\n    }\n\n    \n\n    function transferOwnership(address newOwner) public onlyOwner {\n        // TODO add functionality to transfer control of the contract to a newOwner.\n        // make sure the new owner is a real address\n        require(newOwner!= address(0), \"Owner cannot be Zero\");\n        _owner = newOwner;\n        emit onwerShipTransfer(newOwner);\n    }\n}\n\n//  TODO's: Create a Pausable contract that inherits from the Ownable contract\n//  1) create a private '_paused' variable of type bool\n//  2) create a public setter using the inherited onlyOwner modifier \n//  3) create an internal constructor that sets the _paused variable to false\n//  4) create 'whenNotPaused' & 'paused' modifier that throws in the appropriate situation\n//  5) create a Paused & Unpaused event that emits the address that triggered the event\n\ncontract Pausable is Ownable{\n    bool private _paused;\n\n    event Paused(address caller);\n    event Unpaused(address caller);\n\n    function setPause(bool state) public onlyOwner{\n        if (_paused != state){\n            _paused = state;\n            if (state == true){\n                emit Paused(msg.sender);\n            }else{\n                emit Unpaused(msg.sender);\n            }           \n        }\n    }\n\n    constructor (){\n        _paused = false;\n    }\n\n    modifier whenNotPaused(){\n        require(_paused == false, \"Contract should NOT be paused to execute this function\");\n        _;\n    }\n\n    modifier whenPaused(){\n        require(_paused == true, \"Contract should be paused to execute this function\");\n        _;\n    }\n\n}\n\ncontract ERC165 {\n    bytes4 private constant _INTERFACE_ID_ERC165 = 0x01ffc9a7;\n    /*\n     * 0x01ffc9a7 ===\n     *     bytes4(keccak256('supportsInterface(bytes4)'))\n     */\n\n    /**\n     * @dev a mapping of interface id to whether or not it's supported\n     */\n    mapping(bytes4 => bool) private _supportedInterfaces;\n\n    /**\n     * @dev A contract implementing SupportsInterfaceWithLookup\n     * implement ERC165 itself\n     */\n    constructor () {\n        _registerInterface(_INTERFACE_ID_ERC165);\n    }\n\n    /**\n     * @dev implement supportsInterface(bytes4) using a lookup table\n     */\n    function supportsInterface(bytes4 interfaceId) external view returns (bool) {\n        return _supportedInterfaces[interfaceId];\n    }\n\n    /**\n     * @dev internal method for registering an interface\n     */\n    function _registerInterface(bytes4 interfaceId) internal {\n        require(interfaceId != 0xffffffff, \"Interface ID stuff\");\n        _supportedInterfaces[interfaceId] = true;\n    }\n}\n\ncontract ERC721 is Pausable, ERC165 {\n\n    event Transfer(address indexed from, address indexed to, uint256 indexed tokenId);\n\n    event Approval(address indexed owner, address indexed approved, uint256 indexed tokenId);\n\n    event ApprovalForAll(address indexed owner, address indexed operator, bool approved);\n\n    event Flag(bool flag);\n    \n    using SafeMath for uint256;\n    using Address for address;\n    using Counters for Counters.Counter;\n\n    // Equals to `bytes4(keccak256(\"onERC721Received(address,address,uint256,bytes)\"))`\n    // which can be also obtained as `IERC721Receiver(0).onERC721Received.selector`\n    bytes4 private constant _ERC721_RECEIVED = 0x150b7a02;\n\n    // Mapping from token ID to owner\n    mapping (uint256 => address) private _tokenOwner;\n\n    // Mapping from token ID to approved address\n    mapping (uint256 => address) private _tokenApprovals;\n\n    // Mapping from owner to number of owned token\n    // IMPORTANT: this mapping uses Counters lib which is used to protect overflow when incrementing/decrementing a uint\n    // use the following functions when interacting with Counters: increment(), decrement(), and current() to get the value\n    // see: https://github.com/OpenZeppelin/openzeppelin-solidity/blob/master/contracts/drafts/Counters.sol\n    mapping (address => Counters.Counter) private _ownedTokensCount;\n\n    // Mapping from owner to operator approvals\n    mapping (address => mapping (address => bool)) private _operatorApprovals;\n\n    bytes4 private constant _INTERFACE_ID_ERC721 = 0x80ac58cd;\n\n    constructor () {\n        // register the supported interfaces to conform to ERC721 via ERC165\n        _registerInterface(_INTERFACE_ID_ERC721);\n    }\n\n    function balanceOf(address owner) public view returns (uint256) {\n        // TODO return the token balance of given address\n        // TIP: remember the functions to use for Counters. you can refresh yourself with the link above\n        require(_ownedTokensCount[owner].current() != 0, \"This address doesnt have tokens\");\n        return _ownedTokensCount[owner].current();\n    }\n\n    function ownerOf(uint256 tokenId) public view returns (address) {\n        // TODO return the owner of the given tokenId\n        require(_tokenOwner[tokenId] != address(0), \"This token ID has not been registered\");\n        return _tokenOwner[tokenId];\n    }\n\n//    @dev Approves another address to transfer the given token ID\n    function approve(address to, uint256 tokenId) public {\n        require(_tokenOwner[tokenId] != address(0), \"This token ID has not been registered\");\n        require(to != _tokenOwner[tokenId], \"Address to transfer cannot be the owner\");\n        require( (isOwner(msg.sender) || isApprovedForAll(_tokenOwner[tokenId], to)), \"Operation not approved\");\n\n        _tokenApprovals[tokenId] = to;\n\n        emit Approval(msg.sender, to, tokenId);\n        // TODO require the given address to not be the owner of the tokenId\n\n        // TODO require the msg sender to be the owner of the contract or isApprovedForAll() to be true\n\n        // TODO add 'to' address to token approvals\n\n        // TODO emit Approval Event\n\n    }\n\n    function getApproved(uint256 tokenId) public view returns (address) {\n        require(_tokenOwner[tokenId] != address(0), \"This token ID has not been registered\");\n        return _tokenApprovals[tokenId];\n        // TODO return token approval if it exists\n    }\n\n    /**\n     * @dev Sets or unsets the approval of a given operator\n     * An operator is allowed to transfer all tokens of the sender on their behalf\n     * @param to operator address to set the approval\n     * @param approved representing the status of the approval to be set\n     */\n    function setApprovalForAll(address to, bool approved) public {\n        require(to != msg.sender, \"Caller and To cannot be the same\");\n        _operatorApprovals[msg.sender][to] = approved;\n        emit ApprovalForAll(msg.sender, to, approved);\n    }\n\n    /**\n     * @dev Tells whether an operator is approved by a given owner\n     * @param owner owner address which you want to query the approval of\n     * @param operator operator address which you want to query the approval of\n     * @return bool whether the given operator is approved by the given owner\n     */\n    function isApprovedForAll(address owner, address operator) public view returns (bool) {\n        return _operatorApprovals[owner][operator];\n    }\n\n    function transferFrom(address from, address to, uint256 tokenId) public {\n        require(_isApprovedOrOwner(msg.sender, tokenId));\n\n        _transferFrom(from, to, tokenId);\n    }\n\n    function safeTransferFrom(address from, address to, uint256 tokenId) public {\n        safeTransferFrom(from, to, tokenId, \"\");\n    }\n\n    function safeTransferFrom(address from, address to, uint256 tokenId, bytes memory _data) public {\n        transferFrom(from, to, tokenId);\n        require(_checkOnERC721Received(from, to, tokenId, _data), \"ERC721 Stuff\");\n    }\n\n    /**\n     * @dev Returns whether the specified token exists\n     * @param tokenId uint256 ID of the token to query the existence of\n     * @return bool whether the token exists\n     */\n    function _exists(uint256 tokenId) internal view returns (bool) {\n        address owner = _tokenOwner[tokenId];\n        return owner != address(0);\n    }\n\n    /**\n     * @dev Returns whether the given spender can transfer a given token ID\n     * @param spender address of the spender to query\n     * @param tokenId uint256 ID of the token to be transferred\n     * @return bool whether the msg.sender is approved for the given token ID,\n     * is an operator of the owner, or is the owner of the token\n     */\n    function _isApprovedOrOwner(address spender, uint256 tokenId) internal view returns (bool) {\n        address owner = ownerOf(tokenId);\n        return (spender == owner || getApproved(tokenId) == spender || isApprovedForAll(owner, spender));\n    }\n\n    // @dev Internal function to mint a new token\n    // TIP: remember the functions to use for Counters. you can refresh yourself with the link above\n    function _mint(address to, uint256 tokenId) internal {\n        require(to != address(0), \"Cannot mint a token to address 0x00\");\n        require(!_exists(tokenId), \"TokenId already exists\");\n        emit Flag(true);\n        _tokenOwner[tokenId] = to;\n        emit Flag(true);\n        _ownedTokensCount[to].increment();        \n\n        emit Transfer(msg.sender, to, tokenId);\n\n        // TODO revert if given tokenId already exists or given address is invalid\n  \n        // TODO mint tokenId to given address & increase token count of owner\n\n        // TODO emit Transfer event\n    }\n\n    // @dev Internal function to transfer ownership of a given token ID to another address.\n    // TIP: remember the functions to use for Counters. you can refresh yourself with the link above\n    function _transferFrom(address from, address to, uint256 tokenId) internal virtual {\n        require(to != address(0), \"Cannot mint a token to address 0x00\");\n        require(_exists(tokenId), \"TokenId doesnt exists\");\n        require(_isApprovedOrOwner(from, tokenId), \"from Address is not the owner of the token\");\n\n        //Clear current aprovals to avoid double transfer.\n        _clearApproval(tokenId);\n\n        _ownedTokensCount[from].decrement();\n        _ownedTokensCount[to].increment();\n\n        _tokenOwner[tokenId] = to;\n\n        emit Transfer(from, to, tokenId);\n \n    }\n\n    /**\n     * @dev Internal function to invoke `onERC721Received` on a target address\n     * The call is not executed if the target address is not a contract\n     * @param from address representing the previous owner of the given token ID\n     * @param to target address that will receive the tokens\n     * @param tokenId uint256 ID of the token to be transferred\n     * @param _data bytes optional data to send along with the call\n     * @return bool whether the call correctly returned the expected magic value\n     */\n    function _checkOnERC721Received(address from, address to, uint256 tokenId, bytes memory _data)\n        internal returns (bool)\n    {\n        if (!to.isContract()) {\n            return true;\n        }\n\n        bytes4 retval = IERC721Receiver(to).onERC721Received(msg.sender, from, tokenId, _data);\n        return (retval == _ERC721_RECEIVED);\n    }\n\n    // @dev Private function to clear current approval of a given token ID\n    function _clearApproval(uint256 tokenId) private {\n        if (_tokenApprovals[tokenId] != address(0)) {\n            _tokenApprovals[tokenId] = address(0);\n        }\n    }\n}\n\ncontract ERC721Enumerable is ERC165, ERC721 {\n    // Mapping from owner to list of owned token IDs\n    mapping(address => uint256[]) private _ownedTokens;\n\n    // Mapping from token ID to index of the owner tokens list\n    mapping(uint256 => uint256) private _ownedTokensIndex;\n\n    // Array with all token ids, used for enumeration\n    uint256[] private _allTokens;\n\n    // Mapping from token id to position in the allTokens array\n    mapping(uint256 => uint256) private _allTokensIndex;\n\n    bytes4 private constant _INTERFACE_ID_ERC721_ENUMERABLE = 0x780e9d63;\n    /*\n     * 0x780e9d63 ===\n     *     bytes4(keccak256('totalSupply()')) ^\n     *     bytes4(keccak256('tokenOfOwnerByIndex(address,uint256)')) ^\n     *     bytes4(keccak256('tokenByIndex(uint256)'))\n     */\n\n    /**\n     * @dev Constructor function\n     */\n    constructor () {\n        // register the supported interface to conform to ERC721Enumerable via ERC165\n        _registerInterface(_INTERFACE_ID_ERC721_ENUMERABLE);\n    }\n\n    /**\n     * @dev Gets the token ID at a given index of the tokens list of the requested owner\n     * @param owner address owning the tokens list to be accessed\n     * @param index uint256 representing the index to be accessed of the requested tokens list\n     * @return uint256 token ID at the given index of the tokens list owned by the requested address\n     */\n    function tokenOfOwnerByIndex(address owner, uint256 index) public view returns (uint256) {\n        require(index < balanceOf(owner), \"BalanceOf Problems\");\n        return _ownedTokens[owner][index];\n    }\n\n    /**\n     * @dev Gets the total amount of tokens stored by the contract\n     * @return uint256 representing the total amount of tokens\n     */\n    function totalSupply() public view returns (uint256) {\n        return _allTokens.length;\n    }\n\n    /**\n     * @dev Gets the token ID at a given index of all the tokens in this contract\n     * Reverts if the index is greater or equal to the total number of tokens\n     * @param index uint256 representing the index to be accessed of the tokens list\n     * @return uint256 token ID at the given index of the tokens list\n     */\n    function tokenByIndex(uint256 index) public view returns (uint256) {\n        require(index < totalSupply(), \"Total Supply problems\");\n        return _allTokens[index];\n    }\n\n    /**\n     * @dev Internal function to transfer ownership of a given token ID to another address.\n     * As opposed to transferFrom, this imposes no restrictions on msg.sender.\n     * @param from current owner of the token\n     * @param to address to receive the ownership of the given token ID\n     * @param tokenId uint256 ID of the token to be transferred\n     */\n    function _transferFrom(address from, address to, uint256 tokenId) override internal {\n        super._transferFrom(from, to, tokenId);\n\n        _removeTokenFromOwnerEnumeration(from, tokenId);\n\n        _addTokenToOwnerEnumeration(to, tokenId);\n    }\n\n    /**\n     * @dev Internal function to mint a new token\n     * Reverts if the given token ID already exists\n     * @param to address the beneficiary that will own the minted token\n     * @param tokenId uint256 ID of the token to be minted\n     */\n    function __mint(address to, uint256 tokenId) internal {\n        super._mint(to, tokenId);        \n\n        _addTokenToOwnerEnumeration(to, tokenId);\n\n        _addTokenToAllTokensEnumeration(tokenId);\n    }\n\n    /**\n     * @dev Gets the list of token IDs of the requested owner\n     * @param owner address owning the tokens\n     * @return uint256[] List of token IDs owned by the requested address\n     */\n    function _tokensOfOwner(address owner) internal view returns (uint256[] storage) {\n        return _ownedTokens[owner];\n    }\n\n    /**\n     * @dev Private function to add a token to this extension's ownership-tracking data structures.\n     * @param to address representing the new owner of the given token ID\n     * @param tokenId uint256 ID of the token to be added to the tokens list of the given address\n     */\n    function _addTokenToOwnerEnumeration(address to, uint256 tokenId) private {\n        _ownedTokensIndex[tokenId] = _ownedTokens[to].length;\n        _ownedTokens[to].push(tokenId);\n    }\n\n    /**\n     * @dev Private function to add a token to this extension's token tracking data structures.\n     * @param tokenId uint256 ID of the token to be added to the tokens list\n     */\n    function _addTokenToAllTokensEnumeration(uint256 tokenId) private {\n        _allTokensIndex[tokenId] = _allTokens.length;\n        _allTokens.push(tokenId);\n    }\n\n    /**\n     * @dev Private function to remove a token from this extension's ownership-tracking data structures. Note that\n     * while the token is not assigned a new owner, the _ownedTokensIndex mapping is _not_ updated: this allows for\n     * gas optimizations e.g. when performing a transfer operation (avoiding double writes).\n     * This has O(1) time complexity, but alters the order of the _ownedTokens array.\n     * @param from address representing the previous owner of the given token ID\n     * @param tokenId uint256 ID of the token to be removed from the tokens list of the given address\n     */\n    function _removeTokenFromOwnerEnumeration(address from, uint256 tokenId) private {\n        // To prevent a gap in from's tokens array, we store the last token in the index of the token to delete, and\n        // then delete the last slot (swap and pop).\n\n        uint256 lastTokenIndex = _ownedTokens[from].length - 1;\n        uint256 tokenIndex = _ownedTokensIndex[tokenId];\n\n        // When the token to delete is the last token, the swap operation is unnecessary\n        if (tokenIndex != lastTokenIndex) {\n            uint256 lastTokenId = _ownedTokens[from][lastTokenIndex];\n\n            _ownedTokens[from][tokenIndex] = lastTokenId; // Move the last token to the slot of the to-delete token\n            _ownedTokensIndex[lastTokenId] = tokenIndex; // Update the moved token's index\n        }\n\n        // This also deletes the contents at the last position of the array\n        _ownedTokens[from].pop();\n\n        // Note that _ownedTokensIndex[tokenId] hasn't been cleared: it still points to the old slot (now occupied by\n        // lastTokenId, or just over the end of the array if the token was the last one).\n    }\n\n    /**\n     * @dev Private function to remove a token from this extension's token tracking data structures.\n     * This has O(1) time complexity, but alters the order of the _allTokens array.\n     * @param tokenId uint256 ID of the token to be removed from the tokens list\n     */\n    function _removeTokenFromAllTokensEnumeration(uint256 tokenId) private {\n        // To prevent a gap in the tokens array, we store the last token in the index of the token to delete, and\n        // then delete the last slot (swap and pop).\n\n        uint256 lastTokenIndex = _allTokens.length - 1;\n        uint256 tokenIndex = _allTokensIndex[tokenId];\n\n        // When the token to delete is the last token, the swap operation is unnecessary. However, since this occurs so\n        // rarely (when the last minted token is burnt) that we still do the swap here to avoid the gas cost of adding\n        // an 'if' statement (like in _removeTokenFromOwnerEnumeration)\n        uint256 lastTokenId = _allTokens[lastTokenIndex];\n\n        _allTokens[tokenIndex] = lastTokenId; // Move the last token to the slot of the to-delete token\n        _allTokensIndex[lastTokenId] = tokenIndex; // Update the moved token's index\n\n        // This also deletes the contents at the last position of the array\n        _allTokens.pop();\n        _allTokensIndex[tokenId] = 0;\n    }\n}\n\ncontract ERC721Metadata is ERC721Enumerable, usingProvable {\n    \n    string private _name;\n    string private _symbol;\n    string private _baseTokenURI;\n\n    mapping (uint256 => string) private _tokenURIs;\n\n    // TODO: Create private vars for token _name, _symbol, and _baseTokenURI (string)\n\n    // TODO: create private mapping of tokenId's to token uri's called '_tokenURIs'\n\n    bytes4 private constant _INTERFACE_ID_ERC721_METADATA = 0x5b5e139f;\n    /*\n     * 0x5b5e139f ===\n     *     bytes4(keccak256('name()')) ^\n     *     bytes4(keccak256('symbol()')) ^\n     *     bytes4(keccak256('tokenURI(uint256)'))\n     */\n\n\n    constructor (string memory name, string memory symbol, string memory baseTokenURI) {\n        // TODO: set instance var values\n\n        _registerInterface(_INTERFACE_ID_ERC721_METADATA);\n        _name = name;\n        _symbol = symbol;\n        _baseTokenURI = baseTokenURI;\n    }\n\n    // TODO: create external getter functions for name, symbol, and baseTokenURI\n\n    function getName() external view returns(string memory name) {\n        return _name;\n    }\n\n    function get_symbol() external view returns(string memory symbol) {\n        return _symbol;\n    }\n\n    function get_baseTokenURI() external view returns(string memory uri) {\n        return _baseTokenURI;\n    }\n\n    function tokenURI(uint256 tokenId) external view returns (string memory) {\n        require(_exists(tokenId), \"tokenID doesnt exists\");\n        return _tokenURIs[tokenId];\n    }\n\n    function setTokenURI(uint256 tokenID) internal{\n        require(_exists(tokenID), \"Token ID doesnt exists\");        \n        _tokenURIs[tokenID] = string(abi.encodePacked(_baseTokenURI, uint2STR(tokenID)));\n    }\n\n    function ___mint(address to, uint256 tokenID) internal onlyOwner returns(bool) {     \n        super.__mint(to, tokenID);\n        setTokenURI(tokenID);\n        return true;\n    }\n\n    function uint2STR(uint _i) internal pure returns (string memory _uintAsString) {\n        if (_i == 0) {\n            return \"0\";\n        }\n        uint j = _i;\n        uint len;\n        while (j != 0) {\n            len++;\n            j /= 10;\n        }\n        bytes memory bstr = new bytes(len);\n        uint k = len;\n        while (_i != 0) {\n            k = k-1;\n            uint8 temp = (48 + uint8(_i - _i / 10 * 10));\n            bytes1 b1 = bytes1(temp);\n            bstr[k] = b1;\n            _i /= 10;\n        }\n        return string(bstr);\n    }\n\n    // TODO: Create an internal function to set the tokenURI of a specified tokenId\n    // It should be the _baseTokenURI + the tokenId in string form\n    // TIP #1: use strConcat() from the imported oraclizeAPI lib to set the complete token URI\n    // TIP #2: you can also use uint2str() to convert a uint to a string\n        // see https://github.com/oraclize/ethereum-api/blob/master/oraclizeAPI_0.5.sol for strConcat()\n    // require the token exists before setting\n}\n\ncontract ERC721Mintable is ERC721Metadata(\"AGROS\", \"AGR\", \"https://s3-us-west-2.amazonaws.com/udacity-blockchain/capstone/\"){\n    constructor() {}\n\n    function mint(address to, uint256 tokenID) public onlyOwner returns(bool) {      \n        emit Flag(true);  \n        super.___mint(to, tokenID);\n        super.setTokenURI(tokenID);\n        return true;\n    }\n}",
  "sourcePath": "/home/rob/Documents/Repos/blockchain_course/NFTProject/contracts/ERC721Mintable.sol",
  "compiler": {
    "name": "solc",
    "version": "0.8.11+commit.d7f03943.Emscripten.clang"
  },
  "schemaVersion": "3.4.3",
  "updatedAt": "2022-01-28T02:08:32.286Z",
  "devdoc": {
    "kind": "dev",
    "methods": {
      "__callback(bytes32,string)": {
        "details": "The following `__callback` functions are just placeholders ideally      meant to be defined in child contract when proofs are used.      The function bodies simply silence compiler warnings."
      },
      "isApprovedForAll(address,address)": {
        "details": "Tells whether an operator is approved by a given owner",
        "params": {
          "operator": "operator address which you want to query the approval of",
          "owner": "owner address which you want to query the approval of"
        },
        "returns": {
          "_0": "bool whether the given operator is approved by the given owner"
        }
      },
      "setApprovalForAll(address,bool)": {
        "details": "Sets or unsets the approval of a given operator An operator is allowed to transfer all tokens of the sender on their behalf",
        "params": {
          "approved": "representing the status of the approval to be set",
          "to": "operator address to set the approval"
        }
      },
      "supportsInterface(bytes4)": {
        "details": "implement supportsInterface(bytes4) using a lookup table"
      },
      "tokenByIndex(uint256)": {
        "details": "Gets the token ID at a given index of all the tokens in this contract Reverts if the index is greater or equal to the total number of tokens",
        "params": {
          "index": "uint256 representing the index to be accessed of the tokens list"
        },
        "returns": {
          "_0": "uint256 token ID at the given index of the tokens list"
        }
      },
      "tokenOfOwnerByIndex(address,uint256)": {
        "details": "Gets the token ID at a given index of the tokens list of the requested owner",
        "params": {
          "index": "uint256 representing the index to be accessed of the requested tokens list",
          "owner": "address owning the tokens list to be accessed"
        },
        "returns": {
          "_0": "uint256 token ID at the given index of the tokens list owned by the requested address"
        }
      },
      "totalSupply()": {
        "details": "Gets the total amount of tokens stored by the contract",
        "returns": {
          "_0": "uint256 representing the total amount of tokens"
        }
      }
    },
    "version": 1
  },
  "userdoc": {
    "kind": "user",
    "methods": {},
    "version": 1
  }
}