{
  "contractName": "SolnSquareVerifier",
  "abi": [
    {
      "inputs": [
        {
          "internalType": "address",
          "name": "verifierAddress",
          "type": "address"
        }
      ],
      "stateMutability": "nonpayable",
      "type": "constructor"
    },
    {
      "anonymous": false,
      "inputs": [
        {
          "indexed": true,
          "internalType": "address",
          "name": "owner",
          "type": "address"
        },
        {
          "indexed": true,
          "internalType": "address",
          "name": "approved",
          "type": "address"
        },
        {
          "indexed": true,
          "internalType": "uint256",
          "name": "tokenId",
          "type": "uint256"
        }
      ],
      "name": "Approval",
      "type": "event"
    },
    {
      "anonymous": false,
      "inputs": [
        {
          "indexed": true,
          "internalType": "address",
          "name": "owner",
          "type": "address"
        },
        {
          "indexed": true,
          "internalType": "address",
          "name": "operator",
          "type": "address"
        },
        {
          "indexed": false,
          "internalType": "bool",
          "name": "approved",
          "type": "bool"
        }
      ],
      "name": "ApprovalForAll",
      "type": "event"
    },
    {
      "anonymous": false,
      "inputs": [
        {
          "indexed": false,
          "internalType": "bool",
          "name": "flag",
          "type": "bool"
        }
      ],
      "name": "Flag",
      "type": "event"
    },
    {
      "anonymous": false,
      "inputs": [
        {
          "indexed": false,
          "internalType": "address",
          "name": "caller",
          "type": "address"
        }
      ],
      "name": "Paused",
      "type": "event"
    },
    {
      "anonymous": false,
      "inputs": [
        {
          "indexed": true,
          "internalType": "address",
          "name": "from",
          "type": "address"
        },
        {
          "indexed": true,
          "internalType": "address",
          "name": "to",
          "type": "address"
        },
        {
          "indexed": true,
          "internalType": "uint256",
          "name": "tokenId",
          "type": "uint256"
        }
      ],
      "name": "Transfer",
      "type": "event"
    },
    {
      "anonymous": false,
      "inputs": [
        {
          "indexed": false,
          "internalType": "address",
          "name": "caller",
          "type": "address"
        }
      ],
      "name": "Unpaused",
      "type": "event"
    },
    {
      "anonymous": false,
      "inputs": [
        {
          "indexed": false,
          "internalType": "address",
          "name": "newAddress",
          "type": "address"
        }
      ],
      "name": "onwerShipTransfer",
      "type": "event"
    },
    {
      "anonymous": false,
      "inputs": [
        {
          "indexed": false,
          "internalType": "uint256",
          "name": "index",
          "type": "uint256"
        },
        {
          "indexed": false,
          "internalType": "address",
          "name": "addr",
          "type": "address"
        }
      ],
      "name": "solutionAdded",
      "type": "event"
    },
    {
      "inputs": [
        {
          "internalType": "bytes32",
          "name": "_myid",
          "type": "bytes32"
        },
        {
          "internalType": "string",
          "name": "_result",
          "type": "string"
        }
      ],
      "name": "__callback",
      "outputs": [],
      "stateMutability": "nonpayable",
      "type": "function"
    },
    {
      "inputs": [
        {
          "internalType": "bytes32",
          "name": "_myid",
          "type": "bytes32"
        },
        {
          "internalType": "string",
          "name": "_result",
          "type": "string"
        },
        {
          "internalType": "bytes",
          "name": "_proof",
          "type": "bytes"
        }
      ],
      "name": "__callback",
      "outputs": [],
      "stateMutability": "nonpayable",
      "type": "function"
    },
    {
      "inputs": [
        {
          "internalType": "address",
          "name": "to",
          "type": "address"
        },
        {
          "internalType": "uint256",
          "name": "tokenId",
          "type": "uint256"
        }
      ],
      "name": "approve",
      "outputs": [],
      "stateMutability": "nonpayable",
      "type": "function"
    },
    {
      "inputs": [
        {
          "internalType": "address",
          "name": "owner",
          "type": "address"
        }
      ],
      "name": "balanceOf",
      "outputs": [
        {
          "internalType": "uint256",
          "name": "",
          "type": "uint256"
        }
      ],
      "stateMutability": "view",
      "type": "function",
      "constant": true
    },
    {
      "inputs": [
        {
          "internalType": "uint256",
          "name": "tokenId",
          "type": "uint256"
        }
      ],
      "name": "getApproved",
      "outputs": [
        {
          "internalType": "address",
          "name": "",
          "type": "address"
        }
      ],
      "stateMutability": "view",
      "type": "function",
      "constant": true
    },
    {
      "inputs": [],
      "name": "getName",
      "outputs": [
        {
          "internalType": "string",
          "name": "name",
          "type": "string"
        }
      ],
      "stateMutability": "view",
      "type": "function",
      "constant": true
    },
    {
      "inputs": [],
      "name": "getOwner",
      "outputs": [
        {
          "internalType": "address",
          "name": "addr",
          "type": "address"
        }
      ],
      "stateMutability": "view",
      "type": "function",
      "constant": true
    },
    {
      "inputs": [],
      "name": "get_baseTokenURI",
      "outputs": [
        {
          "internalType": "string",
          "name": "uri",
          "type": "string"
        }
      ],
      "stateMutability": "view",
      "type": "function",
      "constant": true
    },
    {
      "inputs": [],
      "name": "get_symbol",
      "outputs": [
        {
          "internalType": "string",
          "name": "symbol",
          "type": "string"
        }
      ],
      "stateMutability": "view",
      "type": "function",
      "constant": true
    },
    {
      "inputs": [
        {
          "internalType": "address",
          "name": "owner",
          "type": "address"
        },
        {
          "internalType": "address",
          "name": "operator",
          "type": "address"
        }
      ],
      "name": "isApprovedForAll",
      "outputs": [
        {
          "internalType": "bool",
          "name": "",
          "type": "bool"
        }
      ],
      "stateMutability": "view",
      "type": "function",
      "constant": true
    },
    {
      "inputs": [
        {
          "internalType": "address",
          "name": "to",
          "type": "address"
        },
        {
          "internalType": "uint256",
          "name": "tokenID",
          "type": "uint256"
        }
      ],
      "name": "mint",
      "outputs": [
        {
          "internalType": "bool",
          "name": "",
          "type": "bool"
        }
      ],
      "stateMutability": "nonpayable",
      "type": "function"
    },
    {
      "inputs": [
        {
          "internalType": "uint256",
          "name": "tokenId",
          "type": "uint256"
        }
      ],
      "name": "ownerOf",
      "outputs": [
        {
          "internalType": "address",
          "name": "",
          "type": "address"
        }
      ],
      "stateMutability": "view",
      "type": "function",
      "constant": true
    },
    {
      "inputs": [
        {
          "internalType": "address",
          "name": "from",
          "type": "address"
        },
        {
          "internalType": "address",
          "name": "to",
          "type": "address"
        },
        {
          "internalType": "uint256",
          "name": "tokenId",
          "type": "uint256"
        }
      ],
      "name": "safeTransferFrom",
      "outputs": [],
      "stateMutability": "nonpayable",
      "type": "function"
    },
    {
      "inputs": [
        {
          "internalType": "address",
          "name": "from",
          "type": "address"
        },
        {
          "internalType": "address",
          "name": "to",
          "type": "address"
        },
        {
          "internalType": "uint256",
          "name": "tokenId",
          "type": "uint256"
        },
        {
          "internalType": "bytes",
          "name": "_data",
          "type": "bytes"
        }
      ],
      "name": "safeTransferFrom",
      "outputs": [],
      "stateMutability": "nonpayable",
      "type": "function"
    },
    {
      "inputs": [
        {
          "internalType": "address",
          "name": "to",
          "type": "address"
        },
        {
          "internalType": "bool",
          "name": "approved",
          "type": "bool"
        }
      ],
      "name": "setApprovalForAll",
      "outputs": [],
      "stateMutability": "nonpayable",
      "type": "function"
    },
    {
      "inputs": [
        {
          "internalType": "bool",
          "name": "state",
          "type": "bool"
        }
      ],
      "name": "setPause",
      "outputs": [],
      "stateMutability": "nonpayable",
      "type": "function"
    },
    {
      "inputs": [
        {
          "internalType": "bytes4",
          "name": "interfaceId",
          "type": "bytes4"
        }
      ],
      "name": "supportsInterface",
      "outputs": [
        {
          "internalType": "bool",
          "name": "",
          "type": "bool"
        }
      ],
      "stateMutability": "view",
      "type": "function",
      "constant": true
    },
    {
      "inputs": [
        {
          "internalType": "uint256",
          "name": "index",
          "type": "uint256"
        }
      ],
      "name": "tokenByIndex",
      "outputs": [
        {
          "internalType": "uint256",
          "name": "",
          "type": "uint256"
        }
      ],
      "stateMutability": "view",
      "type": "function",
      "constant": true
    },
    {
      "inputs": [
        {
          "internalType": "address",
          "name": "owner",
          "type": "address"
        },
        {
          "internalType": "uint256",
          "name": "index",
          "type": "uint256"
        }
      ],
      "name": "tokenOfOwnerByIndex",
      "outputs": [
        {
          "internalType": "uint256",
          "name": "",
          "type": "uint256"
        }
      ],
      "stateMutability": "view",
      "type": "function",
      "constant": true
    },
    {
      "inputs": [
        {
          "internalType": "uint256",
          "name": "tokenId",
          "type": "uint256"
        }
      ],
      "name": "tokenURI",
      "outputs": [
        {
          "internalType": "string",
          "name": "",
          "type": "string"
        }
      ],
      "stateMutability": "view",
      "type": "function",
      "constant": true
    },
    {
      "inputs": [],
      "name": "totalSupply",
      "outputs": [
        {
          "internalType": "uint256",
          "name": "",
          "type": "uint256"
        }
      ],
      "stateMutability": "view",
      "type": "function",
      "constant": true
    },
    {
      "inputs": [
        {
          "internalType": "address",
          "name": "from",
          "type": "address"
        },
        {
          "internalType": "address",
          "name": "to",
          "type": "address"
        },
        {
          "internalType": "uint256",
          "name": "tokenId",
          "type": "uint256"
        }
      ],
      "name": "transferFrom",
      "outputs": [],
      "stateMutability": "nonpayable",
      "type": "function"
    },
    {
      "inputs": [
        {
          "internalType": "address",
          "name": "newOwner",
          "type": "address"
        }
      ],
      "name": "transferOwnership",
      "outputs": [],
      "stateMutability": "nonpayable",
      "type": "function"
    },
    {
      "inputs": [
        {
          "internalType": "bytes32",
          "name": "",
          "type": "bytes32"
        }
      ],
      "name": "uniqueSolutions",
      "outputs": [
        {
          "internalType": "address",
          "name": "",
          "type": "address"
        }
      ],
      "stateMutability": "view",
      "type": "function",
      "constant": true
    },
    {
      "inputs": [],
      "name": "verifier",
      "outputs": [
        {
          "internalType": "contract SquareVerifier",
          "name": "",
          "type": "address"
        }
      ],
      "stateMutability": "view",
      "type": "function",
      "constant": true
    },
    {
      "inputs": [
        {
          "components": [
            {
              "components": [
                {
                  "internalType": "uint256",
                  "name": "X",
                  "type": "uint256"
                },
                {
                  "internalType": "uint256",
                  "name": "Y",
                  "type": "uint256"
                }
              ],
              "internalType": "struct Pairing.G1Point",
              "name": "a",
              "type": "tuple"
            },
            {
              "components": [
                {
                  "internalType": "uint256[2]",
                  "name": "X",
                  "type": "uint256[2]"
                },
                {
                  "internalType": "uint256[2]",
                  "name": "Y",
                  "type": "uint256[2]"
                }
              ],
              "internalType": "struct Pairing.G2Point",
              "name": "b",
              "type": "tuple"
            },
            {
              "components": [
                {
                  "internalType": "uint256",
                  "name": "X",
                  "type": "uint256"
                },
                {
                  "internalType": "uint256",
                  "name": "Y",
                  "type": "uint256"
                }
              ],
              "internalType": "struct Pairing.G1Point",
              "name": "c",
              "type": "tuple"
            }
          ],
          "internalType": "struct Verifier.Proof",
          "name": "proof",
          "type": "tuple"
        },
        {
          "internalType": "uint256[2]",
          "name": "input",
          "type": "uint256[2]"
        }
      ],
      "name": "verifyTx",
      "outputs": [
        {
          "internalType": "bool",
          "name": "r",
          "type": "bool"
        }
      ],
      "stateMutability": "view",
      "type": "function",
      "constant": true
    },
    {
      "inputs": [
        {
          "internalType": "uint256[2]",
          "name": "a",
          "type": "uint256[2]"
        },
        {
          "internalType": "uint256[2][2]",
          "name": "b",
          "type": "uint256[2][2]"
        },
        {
          "internalType": "uint256[2]",
          "name": "c",
          "type": "uint256[2]"
        },
        {
          "internalType": "uint256[2]",
          "name": "input",
          "type": "uint256[2]"
        }
      ],
      "name": "getVerifierKey",
      "outputs": [
        {
          "internalType": "bytes32",
          "name": "",
          "type": "bytes32"
        }
      ],
      "stateMutability": "pure",
      "type": "function",
      "constant": true
    },
    {
      "inputs": [
        {
          "internalType": "uint256",
          "name": "index",
          "type": "uint256"
        },
        {
          "internalType": "address",
          "name": "addr",
          "type": "address"
        },
        {
          "internalType": "bytes32",
          "name": "key",
          "type": "bytes32"
        }
      ],
      "name": "addSolution",
      "outputs": [],
      "stateMutability": "nonpayable",
      "type": "function"
    },
    {
      "inputs": [
        {
          "internalType": "address",
          "name": "to",
          "type": "address"
        },
        {
          "internalType": "uint256",
          "name": "tokenId",
          "type": "uint256"
        },
        {
          "components": [
            {
              "components": [
                {
                  "internalType": "uint256",
                  "name": "X",
                  "type": "uint256"
                },
                {
                  "internalType": "uint256",
                  "name": "Y",
                  "type": "uint256"
                }
              ],
              "internalType": "struct Pairing.G1Point",
              "name": "a",
              "type": "tuple"
            },
            {
              "components": [
                {
                  "internalType": "uint256[2]",
                  "name": "X",
                  "type": "uint256[2]"
                },
                {
                  "internalType": "uint256[2]",
                  "name": "Y",
                  "type": "uint256[2]"
                }
              ],
              "internalType": "struct Pairing.G2Point",
              "name": "b",
              "type": "tuple"
            },
            {
              "components": [
                {
                  "internalType": "uint256",
                  "name": "X",
                  "type": "uint256"
                },
                {
                  "internalType": "uint256",
                  "name": "Y",
                  "type": "uint256"
                }
              ],
              "internalType": "struct Pairing.G1Point",
              "name": "c",
              "type": "tuple"
            }
          ],
          "internalType": "struct Verifier.Proof",
          "name": "proof",
          "type": "tuple"
        },
        {
          "internalType": "uint256[2]",
          "name": "input",
          "type": "uint256[2]"
        },
        {
          "internalType": "uint256[2]",
          "name": "a",
          "type": "uint256[2]"
        },
        {
          "internalType": "uint256[2][2]",
          "name": "b",
          "type": "uint256[2][2]"
        },
        {
          "internalType": "uint256[2]",
          "name": "c",
          "type": "uint256[2]"
        }
      ],
      "name": "mintToken",
      "outputs": [],
      "stateMutability": "nonpayable",
      "type": "function"
    }
  ],
  "bytecode": "0x60806040523480156200001157600080fd5b5060405162005ab738038062005ab7833981810160405281019062000037919062000438565b6040518060400160405280600581526020017f4147524f530000000000000000000000000000000000000000000000000000008152506040518060400160405280600381526020017f41475200000000000000000000000000000000000000000000000000000000008152506040518060600160405280603f815260200162005a78603f9139336000806101000a81548173ffffffffffffffffffffffffffffffffffffffff021916908373ffffffffffffffffffffffffffffffffffffffff1602179055507fe8417b5d798d3ccbb528cfc2e9a0130bfba2ab210859375d6dcfd2019f6772fc336040516200012e91906200047b565b60405180910390a160008060146101000a81548160ff021916908315150217905550620001686301ffc9a760e01b6200024660201b60201c565b620001806380ac58cd60e01b6200024660201b60201c565b6200019863780e9d6360e01b6200024660201b60201c565b620001b0635b5e139f60e01b6200024660201b60201c565b82600f9080519060200190620001c89291906200031e565b508160109080519060200190620001e19291906200031e565b508060119080519060200190620001fa9291906200031e565b5050505080601360006101000a81548173ffffffffffffffffffffffffffffffffffffffff021916908373ffffffffffffffffffffffffffffffffffffffff1602179055505062000580565b63ffffffff60e01b817bffffffffffffffffffffffffffffffffffffffffffffffffffffffff19161415620002b2576040517f08c379a0000000000000000000000000000000000000000000000000000000008152600401620002a990620004f9565b60405180910390fd5b6001806000837bffffffffffffffffffffffffffffffffffffffffffffffffffffffff19167bffffffffffffffffffffffffffffffffffffffffffffffffffffffff1916815260200190815260200160002060006101000a81548160ff02191690831515021790555050565b8280546200032c906200054a565b90600052602060002090601f0160209004810192826200035057600085556200039c565b82601f106200036b57805160ff19168380011785556200039c565b828001600101855582156200039c579182015b828111156200039b5782518255916020019190600101906200037e565b5b509050620003ab9190620003af565b5090565b5b80821115620003ca576000816000905550600101620003b0565b5090565b600080fd5b600073ffffffffffffffffffffffffffffffffffffffff82169050919050565b60006200040082620003d3565b9050919050565b6200041281620003f3565b81146200041e57600080fd5b50565b600081519050620004328162000407565b92915050565b600060208284031215620004515762000450620003ce565b5b6000620004618482850162000421565b91505092915050565b6200047581620003f3565b82525050565b60006020820190506200049260008301846200046a565b92915050565b600082825260208201905092915050565b7f496e746572666163652049442073747566660000000000000000000000000000600082015250565b6000620004e160128362000498565b9150620004ee82620004a9565b602082019050919050565b600060208201905081810360008301526200051481620004d2565b9050919050565b7f4e487b7100000000000000000000000000000000000000000000000000000000600052602260045260246000fd5b600060028204905060018216806200056357607f821691505b602082108114156200057a57620005796200051b565b5b50919050565b6154e880620005906000396000f3fe608060405234801561001057600080fd5b50600436106101cf5760003560e01c806343cd76fc11610104578063893d20e8116100a2578063bedb86fb11610071578063bedb86fb14610564578063c87b56dd14610580578063e985e9c5146105b0578063f2fde38b146105e0576101cf565b8063893d20e8146104f2578063a22cb46514610510578063b3b720071461052c578063b88d4fde14610548576101cf565b806354663ee1116100de57806354663ee11461045857806357fced22146104765780636352211e1461049257806370a08231146104c2576101cf565b806343cd76fc146103c85780634f6ccce7146103f85780634fc35dfe14610428576101cf565b80632b7ac3f311610171578063374f1a971161014b578063374f1a971461033057806338bbfa501461036057806340c10f191461037c57806342842e0e146103ac576101cf565b80632b7ac3f3146102c45780632f745c59146102e2578063301b5ab814610312576101cf565b806317d7de7c116101ad57806317d7de7c1461025057806318160ddd1461026e57806323b872dd1461028c57806327dc297e146102a8576101cf565b806301ffc9a7146101d4578063081812fc14610204578063095ea7b314610234575b600080fd5b6101ee60048036038101906101e99190613753565b6105fc565b6040516101fb919061379b565b60405180910390f35b61021e600480360381019061021991906137ec565b610664565b60405161022b919061385a565b60405180910390f35b61024e600480360381019061024991906138a1565b610743565b005b6102586109c5565b604051610265919061397a565b60405180910390f35b610276610a57565b60405161028391906139ab565b60405180910390f35b6102a660048036038101906102a191906139c6565b610a64565b005b6102c260048036038101906102bd9190613b84565b610a87565b005b6102cc610ae3565b6040516102d99190613c3f565b60405180910390f35b6102fc60048036038101906102f791906138a1565b610b09565b60405161030991906139ab565b60405180910390f35b61031a610bb9565b604051610327919061397a565b60405180910390f35b61034a60048036038101906103459190613dc1565b610c4b565b6040516103579190613e39565b60405180910390f35b61037a60048036038101906103759190613ef5565b610c84565b005b610396600480360381019061039191906138a1565b610ca7565b6040516103a3919061379b565b60405180910390f35b6103c660048036038101906103c191906139c6565b610d8e565b005b6103e260048036038101906103dd919061408a565b610dae565b6040516103ef919061379b565b60405180910390f35b610412600480360381019061040d91906137ec565b610e7c565b60405161041f91906139ab565b60405180910390f35b610442600480360381019061043d91906140cc565b610eed565b60405161044f919061385a565b60405180910390f35b610460610f20565b60405161046d919061397a565b60405180910390f35b610490600480360381019061048b91906140f9565b610fb2565b005b6104ac60048036038101906104a791906137ec565b6110b9565b6040516104b9919061385a565b60405180910390f35b6104dc60048036038101906104d791906141a0565b611198565b6040516104e991906139ab565b60405180910390f35b6104fa611271565b604051610507919061385a565b60405180910390f35b61052a600480360381019061052591906141f9565b61129a565b005b61054660048036038101906105419190614239565b611406565b005b610562600480360381019061055d919061428c565b611545565b005b61057e6004803603810190610579919061430f565b6115a1565b005b61059a600480360381019061059591906137ec565b6116e8565b6040516105a7919061397a565b60405180910390f35b6105ca60048036038101906105c5919061433c565b6117d5565b6040516105d7919061379b565b60405180910390f35b6105fa60048036038101906105f591906141a0565b611869565b005b600060016000837bffffffffffffffffffffffffffffffffffffffffffffffffffffffff19167bffffffffffffffffffffffffffffffffffffffffffffffffffffffff1916815260200190815260200160002060009054906101000a900460ff169050919050565b60008073ffffffffffffffffffffffffffffffffffffffff166002600084815260200190815260200160002060009054906101000a900473ffffffffffffffffffffffffffffffffffffffff1673ffffffffffffffffffffffffffffffffffffffff161415610708576040517f08c379a00000000000000000000000000000000000000000000000000000000081526004016106ff906143ee565b60405180910390fd5b6003600083815260200190815260200160002060009054906101000a900473ffffffffffffffffffffffffffffffffffffffff169050919050565b600073ffffffffffffffffffffffffffffffffffffffff166002600083815260200190815260200160002060009054906101000a900473ffffffffffffffffffffffffffffffffffffffff1673ffffffffffffffffffffffffffffffffffffffff1614156107e6576040517f08c379a00000000000000000000000000000000000000000000000000000000081526004016107dd906143ee565b60405180910390fd5b6002600082815260200190815260200160002060009054906101000a900473ffffffffffffffffffffffffffffffffffffffff1673ffffffffffffffffffffffffffffffffffffffff168273ffffffffffffffffffffffffffffffffffffffff161415610888576040517f08c379a000000000000000000000000000000000000000000000000000000000815260040161087f90614480565b60405180910390fd5b610891336119e1565b806108d557506108d46002600083815260200190815260200160002060009054906101000a900473ffffffffffffffffffffffffffffffffffffffff16836117d5565b5b610914576040517f08c379a000000000000000000000000000000000000000000000000000000000815260040161090b906144ec565b60405180910390fd5b816003600083815260200190815260200160002060006101000a81548173ffffffffffffffffffffffffffffffffffffffff021916908373ffffffffffffffffffffffffffffffffffffffff160217905550808273ffffffffffffffffffffffffffffffffffffffff163373ffffffffffffffffffffffffffffffffffffffff167f8c5be1e5ebec7d5bd14f71427d1e84f3dd0314c0f7b2291e5b200ac8c7c3b92560405160405180910390a45050565b6060600f80546109d49061453b565b80601f0160208091040260200160405190810160405280929190818152602001828054610a009061453b565b8015610a4d5780601f10610a2257610100808354040283529160200191610a4d565b820191906000526020600020905b815481529060010190602001808311610a3057829003601f168201915b5050505050905090565b6000600880549050905090565b610a6e3382611a39565b610a7757600080fd5b610a82838383611ace565b505050565b610adf8282600067ffffffffffffffff811115610aa757610aa6613a59565b5b6040519080825280601f01601f191660200182016040528015610ad95781602001600182028036833780820191505090505b50610c84565b5050565b601360009054906101000a900473ffffffffffffffffffffffffffffffffffffffff1681565b6000610b1483611198565b8210610b55576040517f08c379a0000000000000000000000000000000000000000000000000000000008152600401610b4c906145b9565b60405180910390fd5b600660008473ffffffffffffffffffffffffffffffffffffffff1673ffffffffffffffffffffffffffffffffffffffff1681526020019081526020016000208281548110610ba657610ba56145d9565b5b9060005260206000200154905092915050565b606060108054610bc89061453b565b80601f0160208091040260200160405190810160405280929190818152602001828054610bf49061453b565b8015610c415780601f10610c1657610100808354040283529160200191610c41565b820191906000526020600020905b815481529060010190602001808311610c2457829003601f168201915b5050505050905090565b600084848484604051602001610c6494939291906147b1565b604051602081830303815290604052805190602001209050949350505050565b6000801b600d60008060001b815260200190815260200160002081905550505050565b60008060009054906101000a900473ffffffffffffffffffffffffffffffffffffffff1673ffffffffffffffffffffffffffffffffffffffff163373ffffffffffffffffffffffffffffffffffffffff1614610d38576040517f08c379a0000000000000000000000000000000000000000000000000000000008152600401610d2f90614871565b60405180910390fd5b7fe145e7af4325483bf4c6332638929bf553f2f21bac737ea4d5b88d8a903368886001604051610d68919061379b565b60405180910390a1610d7a8383611af2565b50610d8482611ba0565b6001905092915050565b610da983838360405180602001604052806000815250611545565b505050565b600080600267ffffffffffffffff811115610dcc57610dcb613a59565b5b604051908082528060200260200182016040528015610dfa5781602001602082028036833780820191505090505b50905060005b6002811015610e5357838160028110610e1c57610e1b6145d9565b5b6020020151828281518110610e3457610e336145d9565b5b6020026020010181815250508080610e4b906148c0565b915050610e00565b506000610e608286611c3d565b1415610e70576001915050610e76565b60009150505b92915050565b6000610e86610a57565b8210610ec7576040517f08c379a0000000000000000000000000000000000000000000000000000000008152600401610ebe90614955565b60405180910390fd5b60088281548110610edb57610eda6145d9565b5b90600052602060002001549050919050565b60156020528060005260406000206000915054906101000a900473ffffffffffffffffffffffffffffffffffffffff1681565b606060118054610f2f9061453b565b80601f0160208091040260200160405190810160405280929190818152602001828054610f5b9061453b565b8015610fa85780601f10610f7d57610100808354040283529160200191610fa8565b820191906000526020600020905b815481529060010190602001808311610f8b57829003601f168201915b5050505050905090565b601360009054906101000a900473ffffffffffffffffffffffffffffffffffffffff1673ffffffffffffffffffffffffffffffffffffffff166343cd76fc86866040518363ffffffff1660e01b815260040161100f929190614b01565b602060405180830381865afa15801561102c573d6000803e3d6000fd5b505050506040513d601f19601f820116820180604052508101906110509190614b41565b61108f576040517f08c379a000000000000000000000000000000000000000000000000000000000815260040161108690614bba565b60405180910390fd5b6110a586886110a08686868a610c4b565b611406565b6110af8787610ca7565b5050505050505050565b60008073ffffffffffffffffffffffffffffffffffffffff166002600084815260200190815260200160002060009054906101000a900473ffffffffffffffffffffffffffffffffffffffff1673ffffffffffffffffffffffffffffffffffffffff16141561115d576040517f08c379a0000000000000000000000000000000000000000000000000000000008152600401611154906143ee565b60405180910390fd5b6002600083815260200190815260200160002060009054906101000a900473ffffffffffffffffffffffffffffffffffffffff169050919050565b6000806111e2600460008573ffffffffffffffffffffffffffffffffffffffff1673ffffffffffffffffffffffffffffffffffffffff168152602001908152602001600020611dd4565b1415611223576040517f08c379a000000000000000000000000000000000000000000000000000000000815260040161121a90614c26565b60405180910390fd5b61126a600460008473ffffffffffffffffffffffffffffffffffffffff1673ffffffffffffffffffffffffffffffffffffffff168152602001908152602001600020611dd4565b9050919050565b60008060009054906101000a900473ffffffffffffffffffffffffffffffffffffffff16905090565b3373ffffffffffffffffffffffffffffffffffffffff168273ffffffffffffffffffffffffffffffffffffffff161415611309576040517f08c379a000000000000000000000000000000000000000000000000000000000815260040161130090614c92565b60405180910390fd5b80600560003373ffffffffffffffffffffffffffffffffffffffff1673ffffffffffffffffffffffffffffffffffffffff16815260200190815260200160002060008473ffffffffffffffffffffffffffffffffffffffff1673ffffffffffffffffffffffffffffffffffffffff16815260200190815260200160002060006101000a81548160ff0219169083151502179055508173ffffffffffffffffffffffffffffffffffffffff163373ffffffffffffffffffffffffffffffffffffffff167f17307eab39ab6107e8899845ad3d59bd9653f200f220920489ca2b5937696c31836040516113fa919061379b565b60405180910390a35050565b600060405180604001604052808581526020018473ffffffffffffffffffffffffffffffffffffffff16815250905060148190806001815401808255809150506001900390600052602060002090600202016000909190919091506000820151816000015560208201518160010160006101000a81548173ffffffffffffffffffffffffffffffffffffffff021916908373ffffffffffffffffffffffffffffffffffffffff1602179055505050826015600084815260200190815260200160002060006101000a81548173ffffffffffffffffffffffffffffffffffffffff021916908373ffffffffffffffffffffffffffffffffffffffff1602179055507f529aebee0fa53cdfb493ac455bd2a7b5924a502f5e34b85b84ebda0e84e62cb28484604051611537929190614cb2565b60405180910390a150505050565b611550848484610a64565b61155c84848484611de2565b61159b576040517f08c379a000000000000000000000000000000000000000000000000000000000815260040161159290614d27565b60405180910390fd5b50505050565b60008054906101000a900473ffffffffffffffffffffffffffffffffffffffff1673ffffffffffffffffffffffffffffffffffffffff163373ffffffffffffffffffffffffffffffffffffffff161461162f576040517f08c379a000000000000000000000000000000000000000000000000000000000815260040161162690614871565b60405180910390fd5b801515600060149054906101000a900460ff161515146116e55780600060146101000a81548160ff0219169083151502179055506001151581151514156116ac577f62e78cea01bee320cd4e420270b5ea74000d11b0c9f74754ebdbfc544b05a2583360405161169f919061385a565b60405180910390a16116e4565b7f5db9ee0a495bf2e6ff9c91a7834c1ba4fdd244a5e8aa4e537bd38aeae4b073aa336040516116db919061385a565b60405180910390a15b5b50565b60606116f382611eea565b611732576040517f08c379a000000000000000000000000000000000000000000000000000000000815260040161172990614d93565b60405180910390fd5b6012600083815260200190815260200160002080546117509061453b565b80601f016020809104026020016040519081016040528092919081815260200182805461177c9061453b565b80156117c95780601f1061179e576101008083540402835291602001916117c9565b820191906000526020600020905b8154815290600101906020018083116117ac57829003601f168201915b50505050509050919050565b6000600560008473ffffffffffffffffffffffffffffffffffffffff1673ffffffffffffffffffffffffffffffffffffffff16815260200190815260200160002060008373ffffffffffffffffffffffffffffffffffffffff1673ffffffffffffffffffffffffffffffffffffffff16815260200190815260200160002060009054906101000a900460ff16905092915050565b60008054906101000a900473ffffffffffffffffffffffffffffffffffffffff1673ffffffffffffffffffffffffffffffffffffffff163373ffffffffffffffffffffffffffffffffffffffff16146118f7576040517f08c379a00000000000000000000000000000000000000000000000000000000081526004016118ee90614871565b60405180910390fd5b600073ffffffffffffffffffffffffffffffffffffffff168173ffffffffffffffffffffffffffffffffffffffff161415611967576040517f08c379a000000000000000000000000000000000000000000000000000000000815260040161195e90614dff565b60405180910390fd5b806000806101000a81548173ffffffffffffffffffffffffffffffffffffffff021916908373ffffffffffffffffffffffffffffffffffffffff1602179055507fe8417b5d798d3ccbb528cfc2e9a0130bfba2ab210859375d6dcfd2019f6772fc816040516119d6919061385a565b60405180910390a150565b60008173ffffffffffffffffffffffffffffffffffffffff1660008054906101000a900473ffffffffffffffffffffffffffffffffffffffff1673ffffffffffffffffffffffffffffffffffffffff16149050919050565b600080611a45836110b9565b90508073ffffffffffffffffffffffffffffffffffffffff168473ffffffffffffffffffffffffffffffffffffffff161480611ab457508373ffffffffffffffffffffffffffffffffffffffff16611a9c84610664565b73ffffffffffffffffffffffffffffffffffffffff16145b80611ac55750611ac481856117d5565b5b91505092915050565b611ad9838383611f5c565b611ae383826121a6565b611aed828261235d565b505050565b60008060009054906101000a900473ffffffffffffffffffffffffffffffffffffffff1673ffffffffffffffffffffffffffffffffffffffff163373ffffffffffffffffffffffffffffffffffffffff1614611b83576040517f08c379a0000000000000000000000000000000000000000000000000000000008152600401611b7a90614871565b60405180910390fd5b611b8d8383612421565b611b9682611ba0565b6001905092915050565b611ba981611eea565b611be8576040517f08c379a0000000000000000000000000000000000000000000000000000000008152600401611bdf90614e6b565b60405180910390fd5b6011611bf382612442565b604051602001611c04929190614f5b565b604051602081830303815290604052601260008381526020019081526020016000209080519060200190611c39929190613535565b5050565b6000807f30644e72e131a029b85045b68181585d2833e84879b9709143e1f593f000000190506000611c6d6125cb565b905080608001515160018651611c839190614f7f565b14611c8d57600080fd5b60006040518060400160405280600081526020016000815250905060005b8651811015611d465783878281518110611cc857611cc76145d9565b5b602002602001015110611cda57600080fd5b611d3182611d2c8560800151600185611cf39190614f7f565b81518110611d0457611d036145d9565b5b60200260200101518a8581518110611d1f57611d1e6145d9565b5b6020026020010151612a47565b612aee565b91508080611d3e906148c0565b915050611cab565b50611d70818360800151600081518110611d6357611d626145d9565b5b6020026020010151612aee565b9050611db685600001518660200151611d8884612bbb565b8560400151611d9a8a60400151612bbb565b8760600151611dac8960000151612bbb565b8960200151612c60565b611dc65760019350505050611dce565b600093505050505b92915050565b600081600001549050919050565b6000611e038473ffffffffffffffffffffffffffffffffffffffff16612e2d565b611e105760019050611ee2565b60008473ffffffffffffffffffffffffffffffffffffffff1663150b7a02338887876040518563ffffffff1660e01b8152600401611e51949392919061502a565b6020604051808303816000875af1158015611e70573d6000803e3d6000fd5b505050506040513d601f19601f82011682018060405250810190611e94919061508b565b905063150b7a0260e01b7bffffffffffffffffffffffffffffffffffffffffffffffffffffffff1916817bffffffffffffffffffffffffffffffffffffffffffffffffffffffff1916149150505b949350505050565b6000806002600084815260200190815260200160002060009054906101000a900473ffffffffffffffffffffffffffffffffffffffff169050600073ffffffffffffffffffffffffffffffffffffffff168173ffffffffffffffffffffffffffffffffffffffff161415915050919050565b600073ffffffffffffffffffffffffffffffffffffffff168273ffffffffffffffffffffffffffffffffffffffff161415611fcc576040517f08c379a0000000000000000000000000000000000000000000000000000000008152600401611fc39061512a565b60405180910390fd5b611fd581611eea565b612014576040517f08c379a000000000000000000000000000000000000000000000000000000000815260040161200b90615196565b60405180910390fd5b61201e8382611a39565b61205d576040517f08c379a000000000000000000000000000000000000000000000000000000000815260040161205490615228565b60405180910390fd5b61206681612e40565b6120ad600460008573ffffffffffffffffffffffffffffffffffffffff1673ffffffffffffffffffffffffffffffffffffffff168152602001908152602001600020612efe565b6120f4600460008473ffffffffffffffffffffffffffffffffffffffff1673ffffffffffffffffffffffffffffffffffffffff168152602001908152602001600020612f5a565b816002600083815260200190815260200160002060006101000a81548173ffffffffffffffffffffffffffffffffffffffff021916908373ffffffffffffffffffffffffffffffffffffffff160217905550808273ffffffffffffffffffffffffffffffffffffffff168473ffffffffffffffffffffffffffffffffffffffff167fddf252ad1be2c89b69c2b068fc378daa952ba7f163c4a11628f55a4df523b3ef60405160405180910390a4505050565b60006001600660008573ffffffffffffffffffffffffffffffffffffffff1673ffffffffffffffffffffffffffffffffffffffff168152602001908152602001600020805490506121f79190615248565b90506000600760008481526020019081526020016000205490508181146122f2576000600660008673ffffffffffffffffffffffffffffffffffffffff1673ffffffffffffffffffffffffffffffffffffffff168152602001908152602001600020838154811061226b5761226a6145d9565b5b9060005260206000200154905080600660008773ffffffffffffffffffffffffffffffffffffffff1673ffffffffffffffffffffffffffffffffffffffff16815260200190815260200160002083815481106122ca576122c96145d9565b5b9060005260206000200181905550816007600083815260200190815260200160002081905550505b600660008573ffffffffffffffffffffffffffffffffffffffff1673ffffffffffffffffffffffffffffffffffffffff1681526020019081526020016000208054806123415761234061527c565b5b6001900381819060005260206000200160009055905550505050565b600660008373ffffffffffffffffffffffffffffffffffffffff1673ffffffffffffffffffffffffffffffffffffffff168152602001908152602001600020805490506007600083815260200190815260200160002081905550600660008373ffffffffffffffffffffffffffffffffffffffff1673ffffffffffffffffffffffffffffffffffffffff1681526020019081526020016000208190806001815401808255809150506001900390600052602060002001600090919091909150555050565b61242b8282612f70565b612435828261235d565b61243e81613191565b5050565b6060600082141561248a576040518060400160405280600181526020017f300000000000000000000000000000000000000000000000000000000000000081525090506125c6565b600082905060005b600082146124bc5780806124a5906148c0565b915050600a826124b591906152da565b9150612492565b60008167ffffffffffffffff8111156124d8576124d7613a59565b5b6040519080825280601f01601f19166020018201604052801561250a5781602001600182028036833780820191505090505b50905060008290505b600086146125be576001816125289190615248565b90506000600a808861253a91906152da565b612544919061530b565b8761254f9190615248565b603061255b9190615372565b905060008160f81b905080848481518110612579576125786145d9565b5b60200101907effffffffffffffffffffffffffffffffffffffffffffffffffffffffffffff1916908160001a905350600a886125b591906152da565b97505050612513565b819450505050505b919050565b6125d36135bb565b60405180604001604052807f0f870bd421883bf6d21754447040cf596f68259267946d4ee09405d40b580c2281526020017f245d90003180ee71efb8cd7c742df722fa1d730116e61f6dab1db5daab86c19b8152508160000181905250604051806040016040528060405180604001604052807f177eda57e6fb2714cef67f326d7a0bb9100bcac90634257d4c89ed30d181870a81526020017f24bf2a57e2a8f8cc5f35436d1963c7bbcadac461b827e2eadaba871fb6748297815250815260200160405180604001604052807f1f80b99b8c76716a697aec732bd5b6545788f21de5083a33e1b31b38bbe1e62381526020017f2b541293cf19258e1818c49f84a2727320bd82450abe829c617370c61017481a8152508152508160200181905250604051806040016040528060405180604001604052807f2eecfe00ebb1b4caa117614bc372ba92eb8b2c3830e8fbd80fa070641e6ab5cd81526020017f1ea77439424b235dd56333622d7fda2daccb4c8f20c39d13b4d1cfe5a9ef4ef8815250815260200160405180604001604052807f080941e4588c57ea7408a7b2bb82763ffeb051eedfb2f57b3e24cae363fff45081526020017f12bffecf726744da5edbaedd98de6fe08d1b0e9d43fabca400f8e978551ab0ea8152508152508160400181905250604051806040016040528060405180604001604052807f27a0814f6e4f988fc54ff8c41f026c4477bf6cd1a4ad44bd8719e72e4ee21fed81526020017f14d1a297badaf02bac323b0d741886eebb250671dc0515f8d3e65aa6cca1e00b815250815260200160405180604001604052807f0639836e1180bc2d56cd0d8954429f5d396f26d0f90b87e6b19bfcdc25a02ddb81526020017f288ee869d35a230580fb189ef102915a6b48f3912e0d9687f967cdc21ab579878152508152508160600181905250600367ffffffffffffffff81111561289a57612899613a59565b5b6040519080825280602002602001820160405280156128d357816020015b6128c0613602565b8152602001906001900390816128b85790505b50816080018190525060405180604001604052807f27c522cbdc89239137d83208a06dbd3793b11aacef564f9f8b7000775714d5ab81526020017f0b44208b84fb8ec3f9b4c9ae135f4020dfbb3ced59d107b50d0f1355ed20d72d8152508160800151600081518110612949576129486145d9565b5b602002602001018190525060405180604001604052807f288a2774a44428804d7cd1b509668aeddab8ffbc88424124d0e738451f52ab6381526020017f132b9d7f4af83e9332f647e2526ebb05dabaa357a3966b2c351072cdd032608f81525081608001516001815181106129c1576129c06145d9565b5b602002602001018190525060405180604001604052807f212d28affef68d6b092d7bda4e3ffeb310d48c74301be6aa7b27afc72fa14e1a81526020017f1799fc5d05fedc0d9ce6bf118ed3c050afc76a7ea2b3b1ad6a258a1fb50c132c8152508160800151600281518110612a3957612a386145d9565b5b602002602001018190525090565b612a4f613602565b612a5761361c565b836000015181600060038110612a7057612a6f6145d9565b5b602002018181525050836020015181600160038110612a9257612a916145d9565b5b6020020181815250508281600260038110612ab057612aaf6145d9565b5b602002018181525050600060608360808460076107d05a03fa90508060008114612ad957612adb565bfe5b5080612ae657600080fd5b505092915050565b612af6613602565b612afe61363e565b836000015181600060048110612b1757612b166145d9565b5b602002018181525050836020015181600160048110612b3957612b386145d9565b5b602002018181525050826000015181600260048110612b5b57612b5a6145d9565b5b602002018181525050826020015181600360048110612b7d57612b7c6145d9565b5b602002018181525050600060608360c08460066107d05a03fa90508060008114612ba657612ba8565bfe5b5080612bb357600080fd5b505092915050565b612bc3613602565b60007f30644e72e131a029b85045b68181585d97816a916871ca8d3c208c16d87cfd47905060008360000151148015612c00575060008360200151145b15612c24576040518060400160405280600081526020016000815250915050612c5b565b604051806040016040528084600001518152602001828560200151612c4991906153a9565b83612c549190615248565b8152509150505b919050565b600080600467ffffffffffffffff811115612c7e57612c7d613a59565b5b604051908082528060200260200182016040528015612cb757816020015b612ca4613602565b815260200190600190039081612c9c5790505b5090506000600467ffffffffffffffff811115612cd757612cd6613a59565b5b604051908082528060200260200182016040528015612d1057816020015b612cfd613660565b815260200190600190039081612cf55790505b5090508a82600081518110612d2857612d276145d9565b5b60200260200101819052508882600181518110612d4857612d476145d9565b5b60200260200101819052508682600281518110612d6857612d676145d9565b5b60200260200101819052508482600381518110612d8857612d876145d9565b5b60200260200101819052508981600081518110612da857612da76145d9565b5b60200260200101819052508781600181518110612dc857612dc76145d9565b5b60200260200101819052508581600281518110612de857612de76145d9565b5b60200260200101819052508381600381518110612e0857612e076145d9565b5b6020026020010181905250612e1d82826131da565b9250505098975050505050505050565b600080823b905060008111915050919050565b600073ffffffffffffffffffffffffffffffffffffffff166003600083815260200190815260200160002060009054906101000a900473ffffffffffffffffffffffffffffffffffffffff1673ffffffffffffffffffffffffffffffffffffffff1614612efb5760006003600083815260200190815260200160002060006101000a81548173ffffffffffffffffffffffffffffffffffffffff021916908373ffffffffffffffffffffffffffffffffffffffff1602179055505b50565b60008160000154905060008111612f4a576040517f08c379a0000000000000000000000000000000000000000000000000000000008152600401612f4190615426565b60405180910390fd5b6001810382600001819055505050565b6001816000016000828254019250508190555050565b600073ffffffffffffffffffffffffffffffffffffffff168273ffffffffffffffffffffffffffffffffffffffff161415612fe0576040517f08c379a0000000000000000000000000000000000000000000000000000000008152600401612fd79061512a565b60405180910390fd5b612fe981611eea565b15613029576040517f08c379a000000000000000000000000000000000000000000000000000000000815260040161302090615492565b60405180910390fd5b7fe145e7af4325483bf4c6332638929bf553f2f21bac737ea4d5b88d8a903368886001604051613059919061379b565b60405180910390a1816002600083815260200190815260200160002060006101000a81548173ffffffffffffffffffffffffffffffffffffffff021916908373ffffffffffffffffffffffffffffffffffffffff1602179055507fe145e7af4325483bf4c6332638929bf553f2f21bac737ea4d5b88d8a9033688860016040516130e3919061379b565b60405180910390a1613132600460008473ffffffffffffffffffffffffffffffffffffffff1673ffffffffffffffffffffffffffffffffffffffff168152602001908152602001600020612f5a565b808273ffffffffffffffffffffffffffffffffffffffff163373ffffffffffffffffffffffffffffffffffffffff167fddf252ad1be2c89b69c2b068fc378daa952ba7f163c4a11628f55a4df523b3ef60405160405180910390a45050565b6008805490506009600083815260200190815260200160002081905550600881908060018154018082558091505060019003906000526020600020016000909190919091505550565b600081518351146131ea57600080fd5b60008351905060006006826131ff919061530b565b905060008167ffffffffffffffff81111561321d5761321c613a59565b5b60405190808252806020026020018201604052801561324b5781602001602082028036833780820191505090505b50905060005b838110156134d05786818151811061326c5761326b6145d9565b5b602002602001015160000151826000600684613288919061530b565b6132929190614f7f565b815181106132a3576132a26145d9565b5b6020026020010181815250508681815181106132c2576132c16145d9565b5b6020026020010151602001518260016006846132de919061530b565b6132e89190614f7f565b815181106132f9576132f86145d9565b5b602002602001018181525050858181518110613318576133176145d9565b5b602002602001015160000151600160028110613337576133366145d9565b5b602002015182600260068461334c919061530b565b6133569190614f7f565b81518110613367576133666145d9565b5b602002602001018181525050858181518110613386576133856145d9565b5b6020026020010151600001516000600281106133a5576133a46145d9565b5b60200201518260036006846133ba919061530b565b6133c49190614f7f565b815181106133d5576133d46145d9565b5b6020026020010181815250508581815181106133f4576133f36145d9565b5b602002602001015160200151600160028110613413576134126145d9565b5b6020020151826004600684613428919061530b565b6134329190614f7f565b81518110613443576134426145d9565b5b602002602001018181525050858181518110613462576134616145d9565b5b602002602001015160200151600060028110613481576134806145d9565b5b6020020151826005600684613496919061530b565b6134a09190614f7f565b815181106134b1576134b06145d9565b5b60200260200101818152505080806134c8906148c0565b915050613251565b506134d9613686565b6000602082602086026020860160086107d05a03fa905080600081146134fe57613500565bfe5b508061350b57600080fd5b600082600060018110613521576135206145d9565b5b602002015114159550505050505092915050565b8280546135419061453b565b90600052602060002090601f01602090048101928261356357600085556135aa565b82601f1061357c57805160ff19168380011785556135aa565b828001600101855582156135aa579182015b828111156135a957825182559160200191906001019061358e565b5b5090506135b791906136a8565b5090565b6040518060a001604052806135ce613602565b81526020016135db613660565b81526020016135e8613660565b81526020016135f5613660565b8152602001606081525090565b604051806040016040528060008152602001600081525090565b6040518060600160405280600390602082028036833780820191505090505090565b6040518060800160405280600490602082028036833780820191505090505090565b60405180604001604052806136736136c5565b81526020016136806136c5565b81525090565b6040518060200160405280600190602082028036833780820191505090505090565b5b808211156136c15760008160009055506001016136a9565b5090565b6040518060400160405280600290602082028036833780820191505090505090565b6000604051905090565b600080fd5b600080fd5b60007fffffffff0000000000000000000000000000000000000000000000000000000082169050919050565b613730816136fb565b811461373b57600080fd5b50565b60008135905061374d81613727565b92915050565b600060208284031215613769576137686136f1565b5b60006137778482850161373e565b91505092915050565b60008115159050919050565b61379581613780565b82525050565b60006020820190506137b0600083018461378c565b92915050565b6000819050919050565b6137c9816137b6565b81146137d457600080fd5b50565b6000813590506137e6816137c0565b92915050565b600060208284031215613802576138016136f1565b5b6000613810848285016137d7565b91505092915050565b600073ffffffffffffffffffffffffffffffffffffffff82169050919050565b600061384482613819565b9050919050565b61385481613839565b82525050565b600060208201905061386f600083018461384b565b92915050565b61387e81613839565b811461388957600080fd5b50565b60008135905061389b81613875565b92915050565b600080604083850312156138b8576138b76136f1565b5b60006138c68582860161388c565b92505060206138d7858286016137d7565b9150509250929050565b600081519050919050565b600082825260208201905092915050565b60005b8381101561391b578082015181840152602081019050613900565b8381111561392a576000848401525b50505050565b6000601f19601f8301169050919050565b600061394c826138e1565b61395681856138ec565b93506139668185602086016138fd565b61396f81613930565b840191505092915050565b600060208201905081810360008301526139948184613941565b905092915050565b6139a5816137b6565b82525050565b60006020820190506139c0600083018461399c565b92915050565b6000806000606084860312156139df576139de6136f1565b5b60006139ed8682870161388c565b93505060206139fe8682870161388c565b9250506040613a0f868287016137d7565b9150509250925092565b6000819050919050565b613a2c81613a19565b8114613a3757600080fd5b50565b600081359050613a4981613a23565b92915050565b600080fd5b600080fd5b7f4e487b7100000000000000000000000000000000000000000000000000000000600052604160045260246000fd5b613a9182613930565b810181811067ffffffffffffffff82111715613ab057613aaf613a59565b5b80604052505050565b6000613ac36136e7565b9050613acf8282613a88565b919050565b600067ffffffffffffffff821115613aef57613aee613a59565b5b613af882613930565b9050602081019050919050565b82818337600083830152505050565b6000613b27613b2284613ad4565b613ab9565b905082815260208101848484011115613b4357613b42613a54565b5b613b4e848285613b05565b509392505050565b600082601f830112613b6b57613b6a613a4f565b5b8135613b7b848260208601613b14565b91505092915050565b60008060408385031215613b9b57613b9a6136f1565b5b6000613ba985828601613a3a565b925050602083013567ffffffffffffffff811115613bca57613bc96136f6565b5b613bd685828601613b56565b9150509250929050565b6000819050919050565b6000613c05613c00613bfb84613819565b613be0565b613819565b9050919050565b6000613c1782613bea565b9050919050565b6000613c2982613c0c565b9050919050565b613c3981613c1e565b82525050565b6000602082019050613c546000830184613c30565b92915050565b600067ffffffffffffffff821115613c7557613c74613a59565b5b602082029050919050565b600080fd5b6000613c98613c9384613c5a565b613ab9565b90508060208402830185811115613cb257613cb1613c80565b5b835b81811015613cdb5780613cc788826137d7565b845260208401935050602081019050613cb4565b5050509392505050565b600082601f830112613cfa57613cf9613a4f565b5b6002613d07848285613c85565b91505092915050565b600067ffffffffffffffff821115613d2b57613d2a613a59565b5b602082029050919050565b6000613d49613d4484613d10565b613ab9565b90508060408402830185811115613d6357613d62613c80565b5b835b81811015613d8c5780613d788882613ce5565b845260208401935050604081019050613d65565b5050509392505050565b600082601f830112613dab57613daa613a4f565b5b6002613db8848285613d36565b91505092915050565b6000806000806101408587031215613ddc57613ddb6136f1565b5b6000613dea87828801613ce5565b9450506040613dfb87828801613d96565b93505060c0613e0c87828801613ce5565b925050610100613e1e87828801613ce5565b91505092959194509250565b613e3381613a19565b82525050565b6000602082019050613e4e6000830184613e2a565b92915050565b600067ffffffffffffffff821115613e6f57613e6e613a59565b5b613e7882613930565b9050602081019050919050565b6000613e98613e9384613e54565b613ab9565b905082815260208101848484011115613eb457613eb3613a54565b5b613ebf848285613b05565b509392505050565b600082601f830112613edc57613edb613a4f565b5b8135613eec848260208601613e85565b91505092915050565b600080600060608486031215613f0e57613f0d6136f1565b5b6000613f1c86828701613a3a565b935050602084013567ffffffffffffffff811115613f3d57613f3c6136f6565b5b613f4986828701613b56565b925050604084013567ffffffffffffffff811115613f6a57613f696136f6565b5b613f7686828701613ec7565b9150509250925092565b600080fd5b600060408284031215613f9b57613f9a613f80565b5b613fa56040613ab9565b90506000613fb5848285016137d7565b6000830152506020613fc9848285016137d7565b60208301525092915050565b600060808284031215613feb57613fea613f80565b5b613ff56040613ab9565b9050600061400584828501613ce5565b600083015250604061401984828501613ce5565b60208301525092915050565b6000610100828403121561403c5761403b613f80565b5b6140466060613ab9565b9050600061405684828501613f85565b600083015250604061406a84828501613fd5565b60208301525060c061407e84828501613f85565b60408301525092915050565b60008061014083850312156140a2576140a16136f1565b5b60006140b085828601614025565b9250506101006140c285828601613ce5565b9150509250929050565b6000602082840312156140e2576140e16136f1565b5b60006140f084828501613a3a565b91505092915050565b6000806000806000806000610280888a031215614119576141186136f1565b5b60006141278a828b0161388c565b97505060206141388a828b016137d7565b96505060406141498a828b01614025565b95505061014061415b8a828b01613ce5565b94505061018061416d8a828b01613ce5565b9350506101c061417f8a828b01613d96565b9250506102406141918a828b01613ce5565b91505092959891949750929550565b6000602082840312156141b6576141b56136f1565b5b60006141c48482850161388c565b91505092915050565b6141d681613780565b81146141e157600080fd5b50565b6000813590506141f3816141cd565b92915050565b600080604083850312156142105761420f6136f1565b5b600061421e8582860161388c565b925050602061422f858286016141e4565b9150509250929050565b600080600060608486031215614252576142516136f1565b5b6000614260868287016137d7565b93505060206142718682870161388c565b925050604061428286828701613a3a565b9150509250925092565b600080600080608085870312156142a6576142a56136f1565b5b60006142b48782880161388c565b94505060206142c58782880161388c565b93505060406142d6878288016137d7565b925050606085013567ffffffffffffffff8111156142f7576142f66136f6565b5b61430387828801613ec7565b91505092959194509250565b600060208284031215614325576143246136f1565b5b6000614333848285016141e4565b91505092915050565b60008060408385031215614353576143526136f1565b5b60006143618582860161388c565b92505060206143728582860161388c565b9150509250929050565b7f5468697320746f6b656e20494420686173206e6f74206265656e20726567697360008201527f7465726564000000000000000000000000000000000000000000000000000000602082015250565b60006143d86025836138ec565b91506143e38261437c565b604082019050919050565b60006020820190508181036000830152614407816143cb565b9050919050565b7f4164647265737320746f207472616e736665722063616e6e6f7420626520746860008201527f65206f776e657200000000000000000000000000000000000000000000000000602082015250565b600061446a6027836138ec565b91506144758261440e565b604082019050919050565b600060208201905081810360008301526144998161445d565b9050919050565b7f4f7065726174696f6e206e6f7420617070726f76656400000000000000000000600082015250565b60006144d66016836138ec565b91506144e1826144a0565b602082019050919050565b60006020820190508181036000830152614505816144c9565b9050919050565b7f4e487b7100000000000000000000000000000000000000000000000000000000600052602260045260246000fd5b6000600282049050600182168061455357607f821691505b602082108114156145675761456661450c565b5b50919050565b7f42616c616e63654f662050726f626c656d730000000000000000000000000000600082015250565b60006145a36012836138ec565b91506145ae8261456d565b602082019050919050565b600060208201905081810360008301526145d281614596565b9050919050565b7f4e487b7100000000000000000000000000000000000000000000000000000000600052603260045260246000fd5b600060029050919050565b600081905092915050565b6000819050919050565b614631816137b6565b82525050565b60006146438383614628565b60208301905092915050565b6000602082019050919050565b61466581614608565b61466f8184614613565b925061467a8261461e565b8060005b838110156146ab5781516146928782614637565b965061469d8361464f565b92505060018101905061467e565b505050505050565b600060029050919050565b600081905092915050565b6000819050919050565b600081905092915050565b6146e781614608565b6146f181846146d3565b92506146fc8261461e565b8060005b8381101561472d5781516147148782614637565b965061471f8361464f565b925050600181019050614700565b505050505050565b600061474183836146de565b60408301905092915050565b6000602082019050919050565b614763816146b3565b61476d81846146be565b9250614778826146c9565b8060005b838110156147a95781516147908782614735565b965061479b8361474d565b92505060018101905061477c565b505050505050565b60006147bd828761465c565b6040820191506147cd828661475a565b6080820191506147dd828561465c565b6040820191506147ed828461465c565b60408201915081905095945050505050565b7f546869732066756e6374696f6e206a7573742063616e2062652063616c6c656e60008201527f6420627920746865206f776e6572206f662074686520636f6e74726163740000602082015250565b600061485b603e836138ec565b9150614866826147ff565b604082019050919050565b6000602082019050818103600083015261488a8161484e565b9050919050565b7f4e487b7100000000000000000000000000000000000000000000000000000000600052601160045260246000fd5b60006148cb826137b6565b91507fffffffffffffffffffffffffffffffffffffffffffffffffffffffffffffffff8214156148fe576148fd614891565b5b600182019050919050565b7f546f74616c20537570706c792070726f626c656d730000000000000000000000600082015250565b600061493f6015836138ec565b915061494a82614909565b602082019050919050565b6000602082019050818103600083015261496e81614932565b9050919050565b61497e816137b6565b82525050565b60408201600082015161499a6000850182614975565b5060208201516149ad6020850182614975565b50505050565b600081905092915050565b60006149ca8383614975565b60208301905092915050565b6149df81614608565b6149e981846149b3565b92506149f48261461e565b8060005b83811015614a25578151614a0c87826149be565b9650614a178361464f565b9250506001810190506149f8565b505050505050565b608082016000820151614a4360008501826149d6565b506020820151614a5660408501826149d6565b50505050565b61010082016000820151614a736000850182614984565b506020820151614a866040850182614a2d565b506040820151614a9960c0850182614984565b50505050565b600081905092915050565b614ab381614608565b614abd8184614a9f565b9250614ac88261461e565b8060005b83811015614af9578151614ae087826149be565b9650614aeb8361464f565b925050600181019050614acc565b505050505050565b600061014082019050614b176000830185614a5c565b614b25610100830184614aaa565b9392505050565b600081519050614b3b816141cd565b92915050565b600060208284031215614b5757614b566136f1565b5b6000614b6584828501614b2c565b91505092915050565b7f496e636f727265637420536f6c7574696f6e0000000000000000000000000000600082015250565b6000614ba46012836138ec565b9150614baf82614b6e565b602082019050919050565b60006020820190508181036000830152614bd381614b97565b9050919050565b7f54686973206164647265737320646f65736e74206861766520746f6b656e7300600082015250565b6000614c10601f836138ec565b9150614c1b82614bda565b602082019050919050565b60006020820190508181036000830152614c3f81614c03565b9050919050565b7f43616c6c657220616e6420546f2063616e6e6f74206265207468652073616d65600082015250565b6000614c7c6020836138ec565b9150614c8782614c46565b602082019050919050565b60006020820190508181036000830152614cab81614c6f565b9050919050565b6000604082019050614cc7600083018561399c565b614cd4602083018461384b565b9392505050565b7f4552433732312053747566660000000000000000000000000000000000000000600082015250565b6000614d11600c836138ec565b9150614d1c82614cdb565b602082019050919050565b60006020820190508181036000830152614d4081614d04565b9050919050565b7f746f6b656e494420646f65736e74206578697374730000000000000000000000600082015250565b6000614d7d6015836138ec565b9150614d8882614d47565b602082019050919050565b60006020820190508181036000830152614dac81614d70565b9050919050565b7f4f776e65722063616e6e6f74206265205a65726f000000000000000000000000600082015250565b6000614de96014836138ec565b9150614df482614db3565b602082019050919050565b60006020820190508181036000830152614e1881614ddc565b9050919050565b7f546f6b656e20494420646f65736e742065786973747300000000000000000000600082015250565b6000614e556016836138ec565b9150614e6082614e1f565b602082019050919050565b60006020820190508181036000830152614e8481614e48565b9050919050565b600081905092915050565b60008190508160005260206000209050919050565b60008154614eb88161453b565b614ec28186614e8b565b94506001821660008114614edd5760018114614eee57614f21565b60ff19831686528186019350614f21565b614ef785614e96565b60005b83811015614f1957815481890152600182019150602081019050614efa565b838801955050505b50505092915050565b6000614f35826138e1565b614f3f8185614e8b565b9350614f4f8185602086016138fd565b80840191505092915050565b6000614f678285614eab565b9150614f738284614f2a565b91508190509392505050565b6000614f8a826137b6565b9150614f95836137b6565b9250827fffffffffffffffffffffffffffffffffffffffffffffffffffffffffffffffff03821115614fca57614fc9614891565b5b828201905092915050565b600081519050919050565b600082825260208201905092915050565b6000614ffc82614fd5565b6150068185614fe0565b93506150168185602086016138fd565b61501f81613930565b840191505092915050565b600060808201905061503f600083018761384b565b61504c602083018661384b565b615059604083018561399c565b818103606083015261506b8184614ff1565b905095945050505050565b60008151905061508581613727565b92915050565b6000602082840312156150a1576150a06136f1565b5b60006150af84828501615076565b91505092915050565b7f43616e6e6f74206d696e74206120746f6b656e20746f2061646472657373203060008201527f7830300000000000000000000000000000000000000000000000000000000000602082015250565b60006151146023836138ec565b915061511f826150b8565b604082019050919050565b6000602082019050818103600083015261514381615107565b9050919050565b7f546f6b656e496420646f65736e74206578697374730000000000000000000000600082015250565b60006151806015836138ec565b915061518b8261514a565b602082019050919050565b600060208201905081810360008301526151af81615173565b9050919050565b7f66726f6d2041646472657373206973206e6f7420746865206f776e6572206f6660008201527f2074686520746f6b656e00000000000000000000000000000000000000000000602082015250565b6000615212602a836138ec565b915061521d826151b6565b604082019050919050565b6000602082019050818103600083015261524181615205565b9050919050565b6000615253826137b6565b915061525e836137b6565b92508282101561527157615270614891565b5b828203905092915050565b7f4e487b7100000000000000000000000000000000000000000000000000000000600052603160045260246000fd5b7f4e487b7100000000000000000000000000000000000000000000000000000000600052601260045260246000fd5b60006152e5826137b6565b91506152f0836137b6565b925082615300576152ff6152ab565b5b828204905092915050565b6000615316826137b6565b9150615321836137b6565b9250817fffffffffffffffffffffffffffffffffffffffffffffffffffffffffffffffff048311821515161561535a57615359614891565b5b828202905092915050565b600060ff82169050919050565b600061537d82615365565b915061538883615365565b92508260ff0382111561539e5761539d614891565b5b828201905092915050565b60006153b4826137b6565b91506153bf836137b6565b9250826153cf576153ce6152ab565b5b828206905092915050565b7f436f756e7465723a2064656372656d656e74206f766572666c6f770000000000600082015250565b6000615410601b836138ec565b915061541b826153da565b602082019050919050565b6000602082019050818103600083015261543f81615403565b9050919050565b7f546f6b656e496420616c72656164792065786973747300000000000000000000600082015250565b600061547c6016836138ec565b915061548782615446565b602082019050919050565b600060208201905081810360008301526154ab8161546f565b905091905056fea264697066735822122073f0b98b4563d8c8d04efcd3103973bbac5b8e3c2c46b35955daf422f51c953e64736f6c634300080b003368747470733a2f2f73332d75732d776573742d322e616d617a6f6e6177732e636f6d2f756461636974792d626c6f636b636861696e2f63617073746f6e652f",
  "immutableReferences": {},
  "source": "pragma solidity >=0.8;\n\nimport \"./ERC721Mintable.sol\";\nimport \"./SquareVerifier.sol\";\n\ncontract SquareVerifier is Verifier {}\n// TODO define a contract call to the zokrates generated solidity contract <Verifier> or <renamedVerifier>\n\ncontract SolnSquareVerifier is ERC721Mintable, Verifier{\n    SquareVerifier public verifier;\n    \n    constructor(address verifierAddress) ERC721Mintable() {\n        verifier = SquareVerifier(verifierAddress);\n    }\n\n    struct Solution {\n        uint256 index;\n        address addr;\n    }\n\n    Solution[] solutions;\n\n    mapping (bytes32 => address) public uniqueSolutions;\n\n    event solutionAdded(uint index, address addr);\n\n    function getVerifierKey\n                        (\n                            uint[2] memory a,\n                            uint[2][2] memory b, \n                            uint[2] memory c, \n                            uint[2] memory input\n                        )\n                        pure\n                        public\n                        returns(bytes32) \n    {\n        return keccak256(abi.encodePacked(a, b, c, input));\n    }\n\n    function addSolution(uint index, address addr, bytes32 key) public {\n        Solution memory sol =  Solution({\n            index: index,\n            addr: addr\n        });\n        solutions.push(sol);\n        uniqueSolutions[key] = addr;\n        emit solutionAdded(index, addr);\n    }\n\n    function mintToken(address to, uint256 tokenId, Proof memory proof, uint[2] memory input, uint[2] memory a, uint[2][2] memory b, uint[2] memory c) public{\n        require(verifier.verifyTx(proof, input), \"Incorrect Solution\");\n        addSolution(tokenId, to, getVerifierKey(a, b, c, input));\n        super.mint(to, tokenId);\n    }\n}\n\n// TODO define another contract named SolnSquareVerifier that inherits from your ERC721Mintable class\n\n// TODO define a solutions struct that can hold an index & an address\n\n// TODO define an array of the above struct\n\n// TODO define a mapping to store unique solutions submitted\n\n// TODO Create an event to emit when a solution is added\n\n// TODO Create a function to add the solutions to the array and emit the event\n\n\n\n// TODO Create a function to mint new NFT only after the solution has been verified\n//  - make sure the solution is unique (has not been used before)\n//  - make sure you handle metadata as well as tokenSuplly\n\n  \n\n\n\n\n\n\n\n\n\n\n\n\n\n\n\n\n\n\n\n\n\n\n\n\n\n\n",
  "sourcePath": "/home/rob/Documents/Repos/blockchain_course/NFTProject/contracts/SolnSquareVerifier.sol",
  "compiler": {
    "name": "solc",
    "version": "0.8.11+commit.d7f03943.Emscripten.clang"
  },
  "schemaVersion": "3.4.3",
  "updatedAt": "2022-01-28T03:18:22.251Z",
  "networkType": "ethereum",
  "devdoc": {
    "kind": "dev",
    "methods": {
      "__callback(bytes32,string)": {
        "details": "The following `__callback` functions are just placeholders ideally      meant to be defined in child contract when proofs are used.      The function bodies simply silence compiler warnings."
      },
      "isApprovedForAll(address,address)": {
        "details": "Tells whether an operator is approved by a given owner",
        "params": {
          "operator": "operator address which you want to query the approval of",
          "owner": "owner address which you want to query the approval of"
        },
        "returns": {
          "_0": "bool whether the given operator is approved by the given owner"
        }
      },
      "setApprovalForAll(address,bool)": {
        "details": "Sets or unsets the approval of a given operator An operator is allowed to transfer all tokens of the sender on their behalf",
        "params": {
          "approved": "representing the status of the approval to be set",
          "to": "operator address to set the approval"
        }
      },
      "supportsInterface(bytes4)": {
        "details": "implement supportsInterface(bytes4) using a lookup table"
      },
      "tokenByIndex(uint256)": {
        "details": "Gets the token ID at a given index of all the tokens in this contract Reverts if the index is greater or equal to the total number of tokens",
        "params": {
          "index": "uint256 representing the index to be accessed of the tokens list"
        },
        "returns": {
          "_0": "uint256 token ID at the given index of the tokens list"
        }
      },
      "tokenOfOwnerByIndex(address,uint256)": {
        "details": "Gets the token ID at a given index of the tokens list of the requested owner",
        "params": {
          "index": "uint256 representing the index to be accessed of the requested tokens list",
          "owner": "address owning the tokens list to be accessed"
        },
        "returns": {
          "_0": "uint256 token ID at the given index of the tokens list owned by the requested address"
        }
      },
      "totalSupply()": {
        "details": "Gets the total amount of tokens stored by the contract",
        "returns": {
          "_0": "uint256 representing the total amount of tokens"
        }
      }
    },
    "version": 1
  },
  "userdoc": {
    "kind": "user",
    "methods": {},
    "version": 1
  }
}